{
  "contractName": "AssetManager",
  "abi": [
    {
      "anonymous": false,
      "inputs": [
        {
          "indexed": false,
          "name": "status",
          "type": "bool"
        },
        {
          "indexed": false,
          "name": "description",
          "type": "string"
        }
      ],
      "name": "AssetLog",
      "type": "event"
    },
    {
      "constant": false,
      "inputs": [
        {
          "name": "id",
          "type": "bytes"
        },
        {
          "name": "_price",
          "type": "uint256"
        },
        {
          "name": "_descriptions",
          "type": "string"
        }
      ],
      "name": "sellAsset",
      "outputs": [
        {
          "name": "",
          "type": "bool"
        }
      ],
      "payable": false,
      "stateMutability": "nonpayable",
      "type": "function"
    },
    {
      "constant": false,
      "inputs": [
        {
          "name": "id",
          "type": "bytes32"
        }
      ],
      "name": "buyAsset",
      "outputs": [],
      "payable": false,
      "stateMutability": "nonpayable",
      "type": "function"
    },
    {
      "constant": false,
      "inputs": [],
      "name": "registerAsset",
      "outputs": [],
      "payable": false,
      "stateMutability": "nonpayable",
      "type": "function"
    }
  ],
  "bytecode": "0x6060604052341561000f57600080fd5b6101938061001e6000396000f300606060405260043610610057576000357c0100000000000000000000000000000000000000000000000000000000900463ffffffff1680633f383ef51461005c578063cac7ed6214610083578063d47e785814610098575b600080fd5b341561006757600080fd5b610081600480803560001916906020019091905050610159565b005b341561008e57600080fd5b61009661015c565b005b34156100a357600080fd5b61013f600480803590602001908201803590602001908080601f0160208091040260200160405190810160405280939291908181526020018383808284378201915050505050509190803590602001909190803590602001908201803590602001908080601f0160208091040260200160405190810160405280939291908181526020018383808284378201915050505050509190505061015e565b604051808215151515815260200191505060405180910390f35b50565b565b600093925050505600a165627a7a723058201946af7f3569d9d2a9b51b38d7379bb82c863ff7dae502289469dfb5166572df0029",
  "source": "pragma solidity ^0.4.18;\n\ncontract AssetManager {\n\n  bytes32[] assetID;\n\n  event AssetLog(bool status, string description);\n\n  function sellAsset(bytes id, uint256 _price, string _descriptions) public returns (bool) {\n\n  }\n\n  function buyAsset(bytes32 id) {\n\n  }\n\n  function registerAsset() {\n\n  }\n\n}",
  "sourcePath": "/Users/wlwanpan/ethereum_lab/Colonizer/contracts/AssetManager.sol",
  "compiler": {
    "name": "solc",
    "version": "0.4.19+commit.c4cbbb05.Emscripten.clang"
  },
  "schemaVersion": "2.0.0",
  "updatedAt": "2018-03-17T06:00:53.088Z"
}