{
  "contractName": "Colonizer",
  "abi": [
    {
      "constant": false,
      "inputs": [
        {
          "name": "_value",
          "type": "uint256"
        },
        {
          "name": "_description",
          "type": "string"
        },
        {
          "name": "_assetType",
          "type": "uint256"
        },
        {
          "name": "_longitude",
          "type": "string"
        },
        {
          "name": "_latitude",
          "type": "string"
        }
      ],
      "name": "registerAsset",
      "outputs": [],
      "payable": false,
      "stateMutability": "nonpayable",
      "type": "function"
    },
    {
      "constant": true,
      "inputs": [
        {
          "name": "_index",
          "type": "uint256"
        }
      ],
      "name": "getAssetByIndex",
      "outputs": [
        {
          "name": "assetId",
          "type": "bytes32"
        },
        {
          "name": "ownerUsername",
          "type": "string"
        },
        {
          "name": "colony",
          "type": "string"
        },
        {
          "name": "value",
          "type": "uint256"
        },
        {
          "name": "onSale",
          "type": "bool"
        },
        {
          "name": "assetType",
          "type": "string"
        },
        {
          "name": "description",
          "type": "string"
        },
        {
          "name": "longitude",
          "type": "string"
        },
        {
          "name": "latitude",
          "type": "string"
        }
      ],
      "payable": false,
      "stateMutability": "view",
      "type": "function"
    },
    {
      "constant": false,
      "inputs": [
        {
          "name": "fullname",
          "type": "string"
        },
        {
          "name": "username",
          "type": "string"
        },
        {
          "name": "password",
          "type": "string"
        },
        {
          "name": "colony",
          "type": "string"
        }
      ],
      "name": "registerHabitant",
      "outputs": [],
      "payable": false,
      "stateMutability": "nonpayable",
      "type": "function"
    },
    {
      "constant": false,
      "inputs": [
        {
          "name": "_assetId",
          "type": "bytes32"
        },
        {
          "name": "_value",
          "type": "uint256"
        }
      ],
      "name": "sellAsset",
      "outputs": [],
      "payable": false,
      "stateMutability": "nonpayable",
      "type": "function"
    },
    {
      "constant": true,
      "inputs": [],
      "name": "getCurrentState",
      "outputs": [
        {
          "name": "",
          "type": "uint8"
        }
      ],
      "payable": false,
      "stateMutability": "view",
      "type": "function"
    },
    {
      "constant": false,
      "inputs": [
        {
          "name": "_assetId",
          "type": "bytes32"
        }
      ],
      "name": "buyAsset",
      "outputs": [],
      "payable": true,
      "stateMutability": "payable",
      "type": "function"
    },
    {
      "constant": false,
      "inputs": [
        {
          "name": "username",
          "type": "string"
        },
        {
          "name": "password",
          "type": "string"
        }
      ],
      "name": "deRegister",
      "outputs": [],
      "payable": false,
      "stateMutability": "nonpayable",
      "type": "function"
    },
    {
      "constant": true,
      "inputs": [],
      "name": "habitantCount",
      "outputs": [
        {
          "name": "",
          "type": "uint256"
        }
      ],
      "payable": false,
      "stateMutability": "view",
      "type": "function"
    },
    {
      "constant": false,
      "inputs": [
        {
          "name": "_assetId",
          "type": "bytes32"
        }
      ],
      "name": "delistAsset",
      "outputs": [],
      "payable": false,
      "stateMutability": "nonpayable",
      "type": "function"
    },
    {
      "constant": true,
      "inputs": [],
      "name": "assetCount",
      "outputs": [
        {
          "name": "",
          "type": "uint256"
        }
      ],
      "payable": false,
      "stateMutability": "view",
      "type": "function"
    }
  ],
  "bytecode": "0x6060604052341561000f57600080fd5b611e7e8061001e6000396000f3006060604052600436106100a4576000357c0100000000000000000000000000000000000000000000000000000000900463ffffffff168063032f3ad2146100a95780630fe0ff411461019e57806314d74a92146104775780631b98d07e1461059d578063378aa701146105cd5780633f383ef514610604578063734ecf8c146106205780639264a489146106c0578063e06e60a5146106e9578063eafe7a7414610710575b600080fd5b34156100b457600080fd5b61019c600480803590602001909190803590602001908201803590602001908080601f0160208091040260200160405190810160405280939291908181526020018383808284378201915050505050509190803590602001909190803590602001908201803590602001908080601f0160208091040260200160405190810160405280939291908181526020018383808284378201915050505050509190803590602001908201803590602001908080601f01602080910402602001604051908101604052809392919081815260200183838082843782019150505050505091905050610739565b005b34156101a957600080fd5b6101bf6004808035906020019091905050610a57565b604051808a600019166000191681526020018060200180602001898152602001881515151581526020018060200180602001806020018060200187810387528f818151815260200191508051906020019080838360005b83811015610231578082015181840152602081019050610216565b50505050905090810190601f16801561025e5780820380516001836020036101000a031916815260200191505b5087810386528e818151815260200191508051906020019080838360005b8381101561029757808201518184015260208101905061027c565b50505050905090810190601f1680156102c45780820380516001836020036101000a031916815260200191505b5087810385528b818151815260200191508051906020019080838360005b838110156102fd5780820151818401526020810190506102e2565b50505050905090810190601f16801561032a5780820380516001836020036101000a031916815260200191505b5087810384528a818151815260200191508051906020019080838360005b83811015610363578082015181840152602081019050610348565b50505050905090810190601f1680156103905780820380516001836020036101000a031916815260200191505b50878103835289818151815260200191508051906020019080838360005b838110156103c95780820151818401526020810190506103ae565b50505050905090810190601f1680156103f65780820380516001836020036101000a031916815260200191505b50878103825288818151815260200191508051906020019080838360005b8381101561042f578082015181840152602081019050610414565b50505050905090810190601f16801561045c5780820380516001836020036101000a031916815260200191505b509f5050505050505050505050505050505060405180910390f35b341561048257600080fd5b61059b600480803590602001908201803590602001908080601f0160208091040260200160405190810160405280939291908181526020018383808284378201915050505050509190803590602001908201803590602001908080601f0160208091040260200160405190810160405280939291908181526020018383808284378201915050505050509190803590602001908201803590602001908080601f0160208091040260200160405190810160405280939291908181526020018383808284378201915050505050509190803590602001908201803590602001908080601f01602080910402602001604051908101604052809392919081815260200183838082843782019150505050505091905050611114565b005b34156105a857600080fd5b6105cb600480803560001916906020019091908035906020019091905050611398565b005b34156105d857600080fd5b6105e06114f3565b604051808260028111156105f057fe5b60ff16815260200191505060405180910390f35b61061e60048080356000191690602001909190505061154a565b005b341561062b57600080fd5b6106be600480803590602001908201803590602001908080601f0160208091040260200160405190810160405280939291908181526020018383808284378201915050505050509190803590602001908201803590602001908080601f016020809104026020016040519081016040528093929190818152602001838380828437820191505050505050919050506116f9565b005b34156106cb57600080fd5b6106d361184b565b6040518082815260200191505060405180910390f35b34156106f457600080fd5b61070e600480803560001916906020019091905050611851565b005b341561071b57600080fd5b61072361193e565b6040518082815260200191505060405180910390f35b6000806001600281111561074957fe5b600560003373ffffffffffffffffffffffffffffffffffffffff1673ffffffffffffffffffffffffffffffffffffffff16815260200190815260200160002060020160009054906101000a900460ff1660028111156107a457fe5b1415156107b057600080fd5b8484846040518084815260200183805190602001908083835b6020831015156107ee57805182526020820191506020810190506020830392506107c9565b6001836020036101000a03801982511681845116808217855250505050505090500182805190602001908083835b602083101515610841578051825260208201915060208101905060208303925061081c565b6001836020036101000a03801982511681845116808217855250505050505090500193505050506040518091039020915061087b85611944565b9050610100604051908101604052803373ffffffffffffffffffffffffffffffffffffffff1681526020018881526020016001151581526020016000151581526020018260048111156108ca57fe5b81526020018781526020018581526020018481525060046000846000191660001916815260200190815260200160002060008201518160000160006101000a81548173ffffffffffffffffffffffffffffffffffffffff021916908373ffffffffffffffffffffffffffffffffffffffff1602179055506020820151816001015560408201518160020160006101000a81548160ff02191690831515021790555060608201518160020160016101000a81548160ff02191690831515021790555060808201518160020160026101000a81548160ff021916908360048111156109af57fe5b021790555060a08201518160030190805190602001906109d0929190611b4d565b5060c08201518160040190805190602001906109ed929190611b4d565b5060e0820151816005019080519060200190610a0a929190611b4d565b5090505060028054806001018281610a229190611bcd565b916000526020600020900160008490919091509060001916905550600080815480929190600101919050555050505050505050565b6000610a61611bf9565b610a69611bf9565b600080610a74611bf9565b610a7c611bf9565b610a84611bf9565b610a8c611bf9565b6000610a96611c0d565b610a9e611c8a565b60008d10158015610ab357506002805490508d105b1515610abe57600080fd5b60028d815481101515610acd57fe5b906000526020600020900154925060046000846000191660001916815260200190815260200160002061010060405190810160405290816000820160009054906101000a900473ffffffffffffffffffffffffffffffffffffffff1673ffffffffffffffffffffffffffffffffffffffff1673ffffffffffffffffffffffffffffffffffffffff168152602001600182015481526020016002820160009054906101000a900460ff161515151581526020016002820160019054906101000a900460ff161515151581526020016002820160029054906101000a900460ff166004811115610bb757fe5b6004811115610bc257fe5b8152602001600382018054600181600116156101000203166002900480601f016020809104026020016040519081016040528092919081815260200182805460018160011615610100020316600290048015610c5f5780601f10610c3457610100808354040283529160200191610c5f565b820191906000526020600020905b815481529060010190602001808311610c4257829003601f168201915b50505050508152602001600482018054600181600116156101000203166002900480601f016020809104026020016040519081016040528092919081815260200182805460018160011615610100020316600290048015610d015780601f10610cd657610100808354040283529160200191610d01565b820191906000526020600020905b815481529060010190602001808311610ce457829003601f168201915b50505050508152602001600582018054600181600116156101000203166002900480601f016020809104026020016040519081016040528092919081815260200182805460018160011615610100020316600290048015610da35780601f10610d7857610100808354040283529160200191610da3565b820191906000526020600020905b815481529060010190602001808311610d8657829003601f168201915b505050505081525050915060056000836000015173ffffffffffffffffffffffffffffffffffffffff1673ffffffffffffffffffffffffffffffffffffffff16815260200190815260200160002060c06040519081016040529081600082018054600181600116156101000203166002900480601f016020809104026020016040519081016040528092919081815260200182805460018160011615610100020316600290048015610e965780601f10610e6b57610100808354040283529160200191610e96565b820191906000526020600020905b815481529060010190602001808311610e7957829003601f168201915b50505050508152602001600182018054600181600116156101000203166002900480601f016020809104026020016040519081016040528092919081815260200182805460018160011615610100020316600290048015610f385780601f10610f0d57610100808354040283529160200191610f38565b820191906000526020600020905b815481529060010190602001808311610f1b57829003601f168201915b505050505081526020016002820160009054906101000a900460ff166002811115610f5f57fe5b6002811115610f6a57fe5b8152602001600382015460001916600019168152602001600482018054600181600116156101000203166002900480601f0160208091040260200160405190810160405280929190818152602001828054600181600116156101000203166002900480156110195780601f10610fee57610100808354040283529160200191611019565b820191906000526020600020905b815481529060010190602001808311610ffc57829003601f168201915b50505050508152602001600582018054806020026020016040519081016040528092919081815260200182805480156110a757602002820191906000526020600020905b8160009054906101000a900473ffffffffffffffffffffffffffffffffffffffff1673ffffffffffffffffffffffffffffffffffffffff168152602001906001019080831161105d575b50505050508152505090508281602001518260800151846020015185606001516110d48760800151611997565b8760a001518860c001518960e001518797508696508292508191508090509b509b509b509b509b509b509b509b509b505050509193959799909294969850565b600083836040518083805190602001908083835b60208310151561114d5780518252602082019150602081019050602083039250611128565b6001836020036101000a03801982511681845116808217855250505050505090500182805190602001908083835b6020831015156111a0578051825260208201915060208101905060208303925061117b565b6001836020036101000a038019825116818451168082178552505050505050905001925050506040518091039020905060c060405190810160405280868152602001858152602001600160028111156111f557fe5b81526020018260001916815260200183815260200160006040518059106112195750595b9080825280602002602001820160405250815250600560003373ffffffffffffffffffffffffffffffffffffffff1673ffffffffffffffffffffffffffffffffffffffff1681526020019081526020016000206000820151816000019080519060200190611288929190611b4d565b5060208201518160010190805190602001906112a5929190611b4d565b5060408201518160020160006101000a81548160ff021916908360028111156112ca57fe5b02179055506060820151816003019060001916905560808201518160040190805190602001906112fb929190611b4d565b5060a0820151816005019080519060200190611318929190611ce7565b50905050600380548060010182816113309190611d71565b9160005260206000209001600033909190916101000a81548173ffffffffffffffffffffffffffffffffffffffff021916908373ffffffffffffffffffffffffffffffffffffffff160217905550506001600081548092919060010191905055505050505050565b60008260046000826000191660001916815260200190815260200160002060020160009054906101000a900460ff1615156113d257600080fd5b833373ffffffffffffffffffffffffffffffffffffffff1660046000836000191660001916815260200190815260200160002060000160009054906101000a900473ffffffffffffffffffffffffffffffffffffffff1673ffffffffffffffffffffffffffffffffffffffff1614151561144b57600080fd5b60046000866000191660001916815260200190815260200160002092503373ffffffffffffffffffffffffffffffffffffffff168360000160009054906101000a900473ffffffffffffffffffffffffffffffffffffffff1673ffffffffffffffffffffffffffffffffffffffff161415156114c657600080fd5b60018360020160016101000a81548160ff0219169083151502179055508383600101819055505050505050565b6000600560003373ffffffffffffffffffffffffffffffffffffffff1673ffffffffffffffffffffffffffffffffffffffff16815260200190815260200160002060020160009054906101000a900460ff16905090565b60008160046000826000191660001916815260200190815260200160002060020160009054906101000a900460ff16151561158457600080fd5b60046000846000191660001916815260200190815260200160002091503373ffffffffffffffffffffffffffffffffffffffff168260000160009054906101000a900473ffffffffffffffffffffffffffffffffffffffff1673ffffffffffffffffffffffffffffffffffffffff161415151561160057600080fd5b8160020160019054906101000a900460ff16151561161d57600080fd5b8160010154341015151561163057600080fd5b8160000160009054906101000a900473ffffffffffffffffffffffffffffffffffffffff1673ffffffffffffffffffffffffffffffffffffffff166108fc349081150290604051600060405180830381858888f19350505050151561169457600080fd5b338260000160006101000a81548173ffffffffffffffffffffffffffffffffffffffff021916908373ffffffffffffffffffffffffffffffffffffffff16021790555060008260020160016101000a81548160ff021916908315150217905550505050565b60008083836040518083805190602001908083835b602083101515611733578051825260208201915060208101905060208303925061170e565b6001836020036101000a03801982511681845116808217855250505050505090500182805190602001908083835b6020831015156117865780518252602082019150602081019050602083039250611761565b6001836020036101000a0380198251168184511680821785525050505050509050019250505060405180910390209150600560003373ffffffffffffffffffffffffffffffffffffffff1673ffffffffffffffffffffffffffffffffffffffff1681526020019081526020016000209050816000191681600301546000191614156118325760028160020160006101000a81548160ff0219169083600281111561182c57fe5b02179055505b6001600081548092919060019003919050555050505050565b60015481565b8060046000826000191660001916815260200190815260200160002060020160009054906101000a900460ff16151561188957600080fd5b813373ffffffffffffffffffffffffffffffffffffffff1660046000836000191660001916815260200190815260200160002060000160009054906101000a900473ffffffffffffffffffffffffffffffffffffffff1673ffffffffffffffffffffffffffffffffffffffff1614151561190257600080fd5b600060046000856000191660001916815260200190815260200160002060020160016101000a81548160ff021916908315150217905550505050565b60005481565b6000808214156119575760009050611992565b60018214156119695760019050611992565b600282141561197b5760029050611992565b600382141561198d5760039050611992565b600490505b919050565b61199f611bf9565b600060048111156119ac57fe5b8260048111156119b857fe5b14156119fb576040805190810160405280600b81526020017f5265736964656e7469616c0000000000000000000000000000000000000000008152509050611b48565b60016004811115611a0857fe5b826004811115611a1457fe5b1415611a57576040805190810160405280600a81526020017f496e647573747269616c000000000000000000000000000000000000000000008152509050611b48565b60026004811115611a6457fe5b826004811115611a7057fe5b1415611ab3576040805190810160405280600c81526020017f4167726963756c747572616c00000000000000000000000000000000000000008152509050611b48565b60036004811115611ac057fe5b826004811115611acc57fe5b1415611b0f576040805190810160405280600981526020017f436f6d6d756e69747900000000000000000000000000000000000000000000008152509050611b48565b6040805190810160405280600581526020017f4f7468657200000000000000000000000000000000000000000000000000000081525090505b919050565b828054600181600116156101000203166002900490600052602060002090601f016020900481019282601f10611b8e57805160ff1916838001178555611bbc565b82800160010185558215611bbc579182015b82811115611bbb578251825591602001919060010190611ba0565b5b509050611bc99190611d9d565b5090565b815481835581811511611bf457818360005260206000209182019101611bf39190611dc2565b5b505050565b602060405190810160405280600081525090565b61010060405190810160405280600073ffffffffffffffffffffffffffffffffffffffff1681526020016000815260200160001515815260200160001515815260200160006004811115611c5d57fe5b8152602001611c6a611de7565b8152602001611c77611de7565b8152602001611c84611de7565b81525090565b60c060405190810160405280611c9e611de7565b8152602001611cab611de7565b815260200160006002811115611cbd57fe5b815260200160008019168152602001611cd4611de7565b8152602001611ce1611dfb565b81525090565b828054828255906000526020600020908101928215611d60579160200282015b82811115611d5f5782518260006101000a81548173ffffffffffffffffffffffffffffffffffffffff021916908373ffffffffffffffffffffffffffffffffffffffff16021790555091602001919060010190611d07565b5b509050611d6d9190611e0f565b5090565b815481835581811511611d9857818360005260206000209182019101611d979190611d9d565b5b505050565b611dbf91905b80821115611dbb576000816000905550600101611da3565b5090565b90565b611de491905b80821115611de0576000816000905550600101611dc8565b5090565b90565b602060405190810160405280600081525090565b602060405190810160405280600081525090565b611e4f91905b80821115611e4b57600081816101000a81549073ffffffffffffffffffffffffffffffffffffffff021916905550600101611e15565b5090565b905600a165627a7a72305820871eac720bbd7081dad78720d6a6f585c1b2e63638e0da54d9d32d338602ae430029",
  "source": "pragma solidity ^0.4.4;\ncontract Colonizer {\n\n  enum HabitantState { offline, online, archieved }\n  enum AssetType { Residential, Industrial, Agricultural, Community, Other }\n\n  struct Habitant {\n\n    string fullName;\n    string username;\n    HabitantState status;\n    bytes32 passwordhash;\n    string colony;\n\n    address[] relatives;\n  }\n\n  struct Asset {\n    address owner;\n\n    uint256 value;\n\n    bool valid;\n    bool onSale;\n\n    AssetType assetType;\n\n    string description;\n    string longitude;\n    string latitude;\n  }\n\n  uint256 public assetCount;\n  uint256 public habitantCount;\n\n  bytes32[] assetKeys;\n  address[] habitantKeys;\n\n  // Mapping Storage\n  mapping (bytes32 => Asset) assetsStorage; // store assetsStorage registered\n  mapping (address => Habitant) habitantsStorage; // store user by address\n\n  // Function Modifiers\n  modifier habitantOnline() { require(habitantsStorage[msg.sender].status == HabitantState.online);_; }\n  modifier assetValid(bytes32 _id) { require(assetsStorage[_id].valid);_; }\n  modifier isAssetOwner(bytes32 _id) { require(assetsStorage[_id].owner == msg.sender);_; }\n\n  function registerHabitant (string fullname, string username, string password, string colony) public {\n    bytes32 passwordhash = keccak256(username, password);\n\n    habitantsStorage[msg.sender] = Habitant(fullname, username, HabitantState.online, passwordhash, colony, new address[](0));\n    habitantKeys.push(msg.sender);\n\n    habitantCount++;\n  }\n\n  function deRegister (string username, string password) public {\n    bytes32 passwordhash = keccak256(username, password);\n\n    Habitant storage habitant = habitantsStorage[msg.sender];\n    if (habitant.passwordhash == passwordhash) {\n      habitant.status = HabitantState.archieved;\n    }\n\n    habitantCount--;\n  }\n\n  function getCurrentState () public view returns (HabitantState) {\n    return habitantsStorage[msg.sender].status;\n  }\n\n//-- Private Helper Functions for Asset -- //\n  function getAssetTypeFromIndex(uint256 _index) pure private returns (AssetType) {\n    if (_index == 0) { return AssetType.Residential; }\n    else if (_index == 1) { return AssetType.Industrial; }\n    else if (_index == 2) { return AssetType.Agricultural; }\n    else if (_index == 3) { return AssetType.Community; }\n    else { return AssetType.Other; }\n  }\n\n  function convertAssetTypeToString(AssetType _type) pure private returns (string) {\n    if (_type == AssetType.Residential) return('Residential');\n    else if (_type == AssetType.Industrial) return('Industrial');\n    else if (_type == AssetType.Agricultural) return('Agricultural');\n    else if (_type == AssetType.Community) return('Community');\n    else return('Other');\n  }\n//-- end --//\n\n  function registerAsset(uint256 _value, string _description, uint256 _assetType, string _longitude, string _latitude)\n  public habitantOnline {\n    var assetId = keccak256(_assetType, _longitude, _latitude);\n\n    AssetType assetType = getAssetTypeFromIndex(_assetType);\n\n    assetsStorage[assetId] = Asset({\n      owner: msg.sender,\n      value: _value,\n      valid: true,\n      onSale: false,\n      description: _description,\n      assetType: assetType,\n      longitude: _longitude,\n      latitude: _latitude\n    });\n\n    assetKeys.push(assetId);\n    assetCount++;\n  }\n\n  function buyAsset(bytes32 _assetId) public payable assetValid(_assetId) {\n    Asset storage currentAsset = assetsStorage[_assetId];\n    require(currentAsset.owner != msg.sender);\n    require(currentAsset.onSale);\n    require(msg.value >= currentAsset.value);\n\n    currentAsset.owner.transfer(msg.value);\n\n    currentAsset.owner = msg.sender;\n    currentAsset.onSale = false;\n  }\n\n  function sellAsset(bytes32 _assetId, uint256 _value) public assetValid(_assetId) isAssetOwner(_assetId) {\n    Asset storage currentAsset = assetsStorage[_assetId];\n\n    require(currentAsset.owner == msg.sender);\n    currentAsset.onSale = true;\n    currentAsset.value = _value;\n  }\n\n  function delistAsset(bytes32 _assetId) public assetValid(_assetId) isAssetOwner(_assetId) {\n    assetsStorage[_assetId].onSale = false;\n  }\n\n  function getAssetByIndex(uint256 _index) public view returns(\n    bytes32 assetId, string ownerUsername, string colony, uint256 value, bool onSale,\n    string assetType, string description, string longitude, string latitude\n  ){\n    require(_index >= 0 && _index < assetKeys.length);\n    bytes32 _key = assetKeys[_index];\n    Asset memory asset = assetsStorage[_key];\n    Habitant memory owner = habitantsStorage[asset.owner];\n\n    return(\n      _key, owner.username, owner.colony, asset.value, asset.onSale,\n      convertAssetTypeToString(asset.assetType), asset.description, asset.longitude, asset.latitude\n    );\n  }\n\n}\n",
  "sourcePath": "/Users/wlwanpan/ethereum_lab/Colonizer/contracts/Colonizer.sol",
  "compiler": {
    "name": "solc",
    "version": "0.4.18+commit.9cf6e910.Emscripten.clang"
  },
  "schemaVersion": "1.0.1",
  "updatedAt": "2018-03-17T21:06:54.560Z"
}