{
  "contractName": "Colonizer",
  "abi": [
    {
      "constant": false,
      "inputs": [
        {
          "name": "_value",
          "type": "uint256"
        },
        {
          "name": "_description",
          "type": "string"
        },
        {
          "name": "_assetType",
          "type": "uint256"
        },
        {
          "name": "_longitude",
          "type": "string"
        },
        {
          "name": "_latitude",
          "type": "string"
        }
      ],
      "name": "registerAsset",
      "outputs": [],
      "payable": false,
      "stateMutability": "nonpayable",
      "type": "function"
    },
    {
      "constant": true,
      "inputs": [
        {
          "name": "_index",
          "type": "uint256"
        }
      ],
      "name": "getAssetByIndex",
      "outputs": [
        {
          "name": "assetId",
          "type": "bytes32"
        },
        {
          "name": "ownerUsername",
          "type": "string"
        },
        {
          "name": "colony",
          "type": "string"
        },
        {
          "name": "value",
          "type": "uint256"
        },
        {
          "name": "onSale",
          "type": "bool"
        },
        {
          "name": "assetType",
          "type": "string"
        },
        {
          "name": "description",
          "type": "string"
        },
        {
          "name": "longitude",
          "type": "string"
        },
        {
          "name": "latitude",
          "type": "string"
        }
      ],
      "payable": false,
      "stateMutability": "view",
      "type": "function"
    },
    {
      "constant": false,
      "inputs": [
        {
          "name": "fullname",
          "type": "string"
        },
        {
          "name": "username",
          "type": "string"
        },
        {
          "name": "password",
          "type": "string"
        },
        {
          "name": "colony",
          "type": "string"
        }
      ],
      "name": "registerHabitant",
      "outputs": [],
      "payable": false,
      "stateMutability": "nonpayable",
      "type": "function"
    },
    {
      "constant": false,
      "inputs": [
        {
          "name": "_assetId",
          "type": "bytes32"
        },
        {
          "name": "_value",
          "type": "uint256"
        }
      ],
      "name": "sellAsset",
      "outputs": [],
      "payable": false,
      "stateMutability": "nonpayable",
      "type": "function"
    },
    {
      "constant": true,
      "inputs": [],
      "name": "getCurrentState",
      "outputs": [
        {
          "name": "",
          "type": "uint8"
        }
      ],
      "payable": false,
      "stateMutability": "view",
      "type": "function"
    },
    {
      "constant": false,
      "inputs": [
        {
          "name": "_assetId",
          "type": "bytes32"
        }
      ],
      "name": "buyAsset",
      "outputs": [],
      "payable": true,
      "stateMutability": "payable",
      "type": "function"
    },
    {
      "constant": true,
      "inputs": [],
      "name": "getMyDetails",
      "outputs": [
        {
          "name": "fullName",
          "type": "string"
        },
        {
          "name": "username",
          "type": "string"
        },
        {
          "name": "penaltyScore",
          "type": "uint256"
        },
        {
          "name": "colony",
          "type": "string"
        }
      ],
      "payable": false,
      "stateMutability": "view",
      "type": "function"
    },
    {
      "constant": true,
      "inputs": [],
      "name": "colonyLawCount",
      "outputs": [
        {
          "name": "",
          "type": "uint256"
        }
      ],
      "payable": false,
      "stateMutability": "view",
      "type": "function"
    },
    {
      "constant": false,
      "inputs": [
        {
          "name": "username",
          "type": "string"
        },
        {
          "name": "password",
          "type": "string"
        }
      ],
      "name": "deRegister",
      "outputs": [],
      "payable": false,
      "stateMutability": "nonpayable",
      "type": "function"
    },
    {
      "constant": true,
      "inputs": [],
      "name": "habitantCount",
      "outputs": [
        {
          "name": "",
          "type": "uint256"
        }
      ],
      "payable": false,
      "stateMutability": "view",
      "type": "function"
    },
    {
      "constant": false,
      "inputs": [
        {
          "name": "_proposalId",
          "type": "bytes32"
        },
        {
          "name": "vote",
          "type": "bool"
        }
      ],
      "name": "callVote",
      "outputs": [],
      "payable": false,
      "stateMutability": "nonpayable",
      "type": "function"
    },
    {
      "constant": false,
      "inputs": [
        {
          "name": "_assetId",
          "type": "bytes32"
        }
      ],
      "name": "delistAsset",
      "outputs": [],
      "payable": false,
      "stateMutability": "nonpayable",
      "type": "function"
    },
    {
      "constant": true,
      "inputs": [
        {
          "name": "_index",
          "type": "uint256"
        }
      ],
      "name": "getHabitantByIndex",
      "outputs": [
        {
          "name": "fullname",
          "type": "string"
        },
        {
          "name": "penaltyScore",
          "type": "uint256"
        },
        {
          "name": "colony",
          "type": "string"
        }
      ],
      "payable": false,
      "stateMutability": "view",
      "type": "function"
    },
    {
      "constant": false,
      "inputs": [
        {
          "name": "_title",
          "type": "string"
        },
        {
          "name": "_proposal",
          "type": "string"
        }
      ],
      "name": "broadcastProposal",
      "outputs": [],
      "payable": false,
      "stateMutability": "nonpayable",
      "type": "function"
    },
    {
      "constant": true,
      "inputs": [
        {
          "name": "_id",
          "type": "bytes32"
        }
      ],
      "name": "getProposalByID",
      "outputs": [
        {
          "name": "vote",
          "type": "uint256"
        },
        {
          "name": "title",
          "type": "string"
        }
      ],
      "payable": false,
      "stateMutability": "view",
      "type": "function"
    },
    {
      "constant": true,
      "inputs": [],
      "name": "assetCount",
      "outputs": [
        {
          "name": "",
          "type": "uint256"
        }
      ],
      "payable": false,
      "stateMutability": "view",
      "type": "function"
    },
    {
      "anonymous": false,
      "inputs": [
        {
          "indexed": false,
          "name": "id",
          "type": "bytes32"
        },
        {
          "indexed": false,
          "name": "title",
          "type": "string"
        },
        {
          "indexed": false,
          "name": "proposal",
          "type": "string"
        }
      ],
      "name": "ProposalEvent",
      "type": "event"
    }
  ],
  "bytecode": "0x6060604052341561000f57600080fd5b6132408061001e6000396000f3006060604052600436106100e6576000357c0100000000000000000000000000000000000000000000000000000000900463ffffffff168063032f3ad2146100eb5780630fe0ff41146101e057806314d74a92146104b95780631b98d07e146105df578063378aa7011461060f5780633f383ef514610646578063431bbb7e146106625780634d8f7e69146107cf578063734ecf8c146107f85780639264a48914610898578063d214ebc9146108c1578063e06e60a5146108f3578063e0f2f6a51461091a578063e17af96014610a29578063e5ea666414610ac9578063eafe7a7414610b70575b600080fd5b34156100f657600080fd5b6101de600480803590602001909190803590602001908201803590602001908080601f0160208091040260200160405190810160405280939291908181526020018383808284378201915050505050509190803590602001909190803590602001908201803590602001908080601f0160208091040260200160405190810160405280939291908181526020018383808284378201915050505050509190803590602001908201803590602001908080601f01602080910402602001604051908101604052809392919081815260200183838082843782019150505050505091905050610b99565b005b34156101eb57600080fd5b6102016004808035906020019091905050610eb7565b604051808a600019166000191681526020018060200180602001898152602001881515151581526020018060200180602001806020018060200187810387528f818151815260200191508051906020019080838360005b83811015610273578082015181840152602081019050610258565b50505050905090810190601f1680156102a05780820380516001836020036101000a031916815260200191505b5087810386528e818151815260200191508051906020019080838360005b838110156102d95780820151818401526020810190506102be565b50505050905090810190601f1680156103065780820380516001836020036101000a031916815260200191505b5087810385528b818151815260200191508051906020019080838360005b8381101561033f578082015181840152602081019050610324565b50505050905090810190601f16801561036c5780820380516001836020036101000a031916815260200191505b5087810384528a818151815260200191508051906020019080838360005b838110156103a557808201518184015260208101905061038a565b50505050905090810190601f1680156103d25780820380516001836020036101000a031916815260200191505b50878103835289818151815260200191508051906020019080838360005b8381101561040b5780820151818401526020810190506103f0565b50505050905090810190601f1680156104385780820380516001836020036101000a031916815260200191505b50878103825288818151815260200191508051906020019080838360005b83811015610471578082015181840152602081019050610456565b50505050905090810190601f16801561049e5780820380516001836020036101000a031916815260200191505b509f5050505050505050505050505050505060405180910390f35b34156104c457600080fd5b6105dd600480803590602001908201803590602001908080601f0160208091040260200160405190810160405280939291908181526020018383808284378201915050505050509190803590602001908201803590602001908080601f0160208091040260200160405190810160405280939291908181526020018383808284378201915050505050509190803590602001908201803590602001908080601f0160208091040260200160405190810160405280939291908181526020018383808284378201915050505050509190803590602001908201803590602001908080601f0160208091040260200160405190810160405280939291908181526020018383808284378201915050505050509190505061157e565b005b34156105ea57600080fd5b61060d600480803560001916906020019091908035906020019091905050611813565b005b341561061a57600080fd5b61062261196e565b6040518082600281111561063257fe5b60ff16815260200191505060405180910390f35b6106606004808035600019169060200190919050506119c5565b005b341561066d57600080fd5b610675611b74565b60405180806020018060200185815260200180602001848103845288818151815260200191508051906020019080838360005b838110156106c35780820151818401526020810190506106a8565b50505050905090810190601f1680156106f05780820380516001836020036101000a031916815260200191505b50848103835287818151815260200191508051906020019080838360005b8381101561072957808201518184015260208101905061070e565b50505050905090810190601f1680156107565780820380516001836020036101000a031916815260200191505b50848103825285818151815260200191508051906020019080838360005b8381101561078f578082015181840152602081019050610774565b50505050905090810190601f1680156107bc5780820380516001836020036101000a031916815260200191505b5097505050505050505060405180910390f35b34156107da57600080fd5b6107e2611f40565b6040518082815260200191505060405180910390f35b341561080357600080fd5b610896600480803590602001908201803590602001908080601f0160208091040260200160405190810160405280939291908181526020018383808284378201915050505050509190803590602001908201803590602001908080601f01602080910402602001604051908101604052809392919081815260200183838082843782019150505050505091905050611f46565b005b34156108a357600080fd5b6108ab612098565b6040518082815260200191505060405180910390f35b34156108cc57600080fd5b6108f1600480803560001916906020019091908035151590602001909190505061209e565b005b34156108fe57600080fd5b610918600480803560001916906020019091905050612143565b005b341561092557600080fd5b61093b6004808035906020019091905050612230565b604051808060200184815260200180602001838103835286818151815260200191508051906020019080838360005b8381101561098557808201518184015260208101905061096a565b50505050905090810190601f1680156109b25780820380516001836020036101000a031916815260200191505b50838103825284818151815260200191508051906020019080838360005b838110156109eb5780820151818401526020810190506109d0565b50505050905090810190601f168015610a185780820380516001836020036101000a031916815260200191505b509550505050505060405180910390f35b3415610a3457600080fd5b610ac7600480803590602001908201803590602001908080601f0160208091040260200160405190810160405280939291908181526020018383808284378201915050505050509190803590602001908201803590602001908080601f016020809104026020016040519081016040528093929190818152602001838380828437820191505050505050919050506125d7565b005b3415610ad457600080fd5b610aee600480803560001916906020019091905050612bd4565b6040518083815260200180602001828103825283818151815260200191508051906020019080838360005b83811015610b34578082015181840152602081019050610b19565b50505050905090810190601f168015610b615780820380516001836020036101000a031916815260200191505b50935050505060405180910390f35b3415610b7b57600080fd5b610b83612cf9565b6040518082815260200191505060405180910390f35b60008060016002811115610ba957fe5b600860003373ffffffffffffffffffffffffffffffffffffffff1673ffffffffffffffffffffffffffffffffffffffff16815260200190815260200160002060020160009054906101000a900460ff166002811115610c0457fe5b141515610c1057600080fd5b8484846040518084815260200183805190602001908083835b602083101515610c4e5780518252602082019150602081019050602083039250610c29565b6001836020036101000a03801982511681845116808217855250505050505090500182805190602001908083835b602083101515610ca15780518252602082019150602081019050602083039250610c7c565b6001836020036101000a038019825116818451168082178552505050505050905001935050505060405180910390209150610cdb85612cff565b9050610100604051908101604052803373ffffffffffffffffffffffffffffffffffffffff168152602001888152602001600115158152602001600015158152602001826004811115610d2a57fe5b81526020018781526020018581526020018481525060076000846000191660001916815260200190815260200160002060008201518160000160006101000a81548173ffffffffffffffffffffffffffffffffffffffff021916908373ffffffffffffffffffffffffffffffffffffffff1602179055506020820151816001015560408201518160020160006101000a81548160ff02191690831515021790555060608201518160020160016101000a81548160ff02191690831515021790555060808201518160020160026101000a81548160ff02191690836004811115610e0f57fe5b021790555060a0820151816003019080519060200190610e30929190612f08565b5060c0820151816004019080519060200190610e4d929190612f08565b5060e0820151816005019080519060200190610e6a929190612f08565b5090505060048054806001018281610e829190612f88565b916000526020600020900160008490919091509060001916905550600080815480929190600101919050555050505050505050565b6000610ec1612fb4565b610ec9612fb4565b600080610ed4612fb4565b610edc612fb4565b610ee4612fb4565b610eec612fb4565b6000610ef6612fc8565b610efe613045565b60008d10158015610f1357506004805490508d105b1515610f1e57600080fd5b60048d815481101515610f2d57fe5b906000526020600020900154925060076000846000191660001916815260200190815260200160002061010060405190810160405290816000820160009054906101000a900473ffffffffffffffffffffffffffffffffffffffff1673ffffffffffffffffffffffffffffffffffffffff1673ffffffffffffffffffffffffffffffffffffffff168152602001600182015481526020016002820160009054906101000a900460ff161515151581526020016002820160019054906101000a900460ff161515151581526020016002820160029054906101000a900460ff16600481111561101757fe5b600481111561102257fe5b8152602001600382018054600181600116156101000203166002900480601f0160208091040260200160405190810160405280929190818152602001828054600181600116156101000203166002900480156110bf5780601f10611094576101008083540402835291602001916110bf565b820191906000526020600020905b8154815290600101906020018083116110a257829003601f168201915b50505050508152602001600482018054600181600116156101000203166002900480601f0160208091040260200160405190810160405280929190818152602001828054600181600116156101000203166002900480156111615780601f1061113657610100808354040283529160200191611161565b820191906000526020600020905b81548152906001019060200180831161114457829003601f168201915b50505050508152602001600582018054600181600116156101000203166002900480601f0160208091040260200160405190810160405280929190818152602001828054600181600116156101000203166002900480156112035780601f106111d857610100808354040283529160200191611203565b820191906000526020600020905b8154815290600101906020018083116111e657829003601f168201915b505050505081525050915060086000836000015173ffffffffffffffffffffffffffffffffffffffff1673ffffffffffffffffffffffffffffffffffffffff16815260200190815260200160002060e06040519081016040529081600082018054600181600116156101000203166002900480601f0160208091040260200160405190810160405280929190818152602001828054600181600116156101000203166002900480156112f65780601f106112cb576101008083540402835291602001916112f6565b820191906000526020600020905b8154815290600101906020018083116112d957829003601f168201915b50505050508152602001600182018054600181600116156101000203166002900480601f0160208091040260200160405190810160405280929190818152602001828054600181600116156101000203166002900480156113985780601f1061136d57610100808354040283529160200191611398565b820191906000526020600020905b81548152906001019060200180831161137b57829003601f168201915b505050505081526020016002820160009054906101000a900460ff1660028111156113bf57fe5b60028111156113ca57fe5b815260200160038201546000191660001916815260200160048201548152602001600582018054600181600116156101000203166002900480601f0160208091040260200160405190810160405280929190818152602001828054600181600116156101000203166002900480156114835780601f1061145857610100808354040283529160200191611483565b820191906000526020600020905b81548152906001019060200180831161146657829003601f168201915b505050505081526020016006820180548060200260200160405190810160405280929190818152602001828054801561151157602002820191906000526020600020905b8160009054906101000a900473ffffffffffffffffffffffffffffffffffffffff1673ffffffffffffffffffffffffffffffffffffffff16815260200190600101908083116114c7575b50505050508152505090508281602001518260a001518460200151856060015161153e8760800151612d52565b8760a001518860c001518960e001518797508696508292508191508090509b509b509b509b509b509b509b509b509b505050509193959799909294969850565b600083836040518083805190602001908083835b6020831015156115b75780518252602082019150602081019050602083039250611592565b6001836020036101000a03801982511681845116808217855250505050505090500182805190602001908083835b60208310151561160a57805182526020820191506020810190506020830392506115e5565b6001836020036101000a038019825116818451168082178552505050505050905001925050506040518091039020905060e0604051908101604052808681526020018581526020016001600281111561165f57fe5b81526020018260001916815260200160008152602001838152602001600060405180591061168a5750595b9080825280602002602001820160405250815250600860003373ffffffffffffffffffffffffffffffffffffffff1673ffffffffffffffffffffffffffffffffffffffff16815260200190815260200160002060008201518160000190805190602001906116f9929190612f08565b506020820151816001019080519060200190611716929190612f08565b5060408201518160020160006101000a81548160ff0219169083600281111561173b57fe5b0217905550606082015181600301906000191690556080820151816004015560a0820151816005019080519060200190611776929190612f08565b5060c08201518160060190805190602001906117939291906130a9565b50905050600580548060010182816117ab9190613133565b9160005260206000209001600033909190916101000a81548173ffffffffffffffffffffffffffffffffffffffff021916908373ffffffffffffffffffffffffffffffffffffffff160217905550506001600081548092919060010191905055505050505050565b60008260076000826000191660001916815260200190815260200160002060020160009054906101000a900460ff16151561184d57600080fd5b833373ffffffffffffffffffffffffffffffffffffffff1660076000836000191660001916815260200190815260200160002060000160009054906101000a900473ffffffffffffffffffffffffffffffffffffffff1673ffffffffffffffffffffffffffffffffffffffff161415156118c657600080fd5b60076000866000191660001916815260200190815260200160002092503373ffffffffffffffffffffffffffffffffffffffff168360000160009054906101000a900473ffffffffffffffffffffffffffffffffffffffff1673ffffffffffffffffffffffffffffffffffffffff1614151561194157600080fd5b60018360020160016101000a81548160ff0219169083151502179055508383600101819055505050505050565b6000600860003373ffffffffffffffffffffffffffffffffffffffff1673ffffffffffffffffffffffffffffffffffffffff16815260200190815260200160002060020160009054906101000a900460ff16905090565b60008160076000826000191660001916815260200190815260200160002060020160009054906101000a900460ff1615156119ff57600080fd5b60076000846000191660001916815260200190815260200160002091503373ffffffffffffffffffffffffffffffffffffffff168260000160009054906101000a900473ffffffffffffffffffffffffffffffffffffffff1673ffffffffffffffffffffffffffffffffffffffff1614151515611a7b57600080fd5b8160020160019054906101000a900460ff161515611a9857600080fd5b81600101543410151515611aab57600080fd5b8160000160009054906101000a900473ffffffffffffffffffffffffffffffffffffffff1673ffffffffffffffffffffffffffffffffffffffff166108fc349081150290604051600060405180830381858888f193505050501515611b0f57600080fd5b338260000160006101000a81548173ffffffffffffffffffffffffffffffffffffffff021916908373ffffffffffffffffffffffffffffffffffffffff16021790555060008260020160016101000a81548160ff021916908315150217905550505050565b611b7c612fb4565b611b84612fb4565b6000611b8e612fb4565b611b96613045565b60016002811115611ba357fe5b600860003373ffffffffffffffffffffffffffffffffffffffff1673ffffffffffffffffffffffffffffffffffffffff16815260200190815260200160002060020160009054906101000a900460ff166002811115611bfe57fe5b141515611c0a57600080fd5b600860003373ffffffffffffffffffffffffffffffffffffffff1673ffffffffffffffffffffffffffffffffffffffff16815260200190815260200160002060e06040519081016040529081600082018054600181600116156101000203166002900480601f016020809104026020016040519081016040528092919081815260200182805460018160011615610100020316600290048015611cee5780601f10611cc357610100808354040283529160200191611cee565b820191906000526020600020905b815481529060010190602001808311611cd157829003601f168201915b50505050508152602001600182018054600181600116156101000203166002900480601f016020809104026020016040519081016040528092919081815260200182805460018160011615610100020316600290048015611d905780601f10611d6557610100808354040283529160200191611d90565b820191906000526020600020905b815481529060010190602001808311611d7357829003601f168201915b505050505081526020016002820160009054906101000a900460ff166002811115611db757fe5b6002811115611dc257fe5b815260200160038201546000191660001916815260200160048201548152602001600582018054600181600116156101000203166002900480601f016020809104026020016040519081016040528092919081815260200182805460018160011615610100020316600290048015611e7b5780601f10611e5057610100808354040283529160200191611e7b565b820191906000526020600020905b815481529060010190602001808311611e5e57829003601f168201915b5050505050815260200160068201805480602002602001604051908101604052809291908181526020018280548015611f0957602002820191906000526020600020905b8160009054906101000a900473ffffffffffffffffffffffffffffffffffffffff1673ffffffffffffffffffffffffffffffffffffffff1681526020019060010190808311611ebf575b50505050508152505090508060000151816020015182608001518360a0015183935082925080905094509450945094505090919293565b60025481565b60008083836040518083805190602001908083835b602083101515611f805780518252602082019150602081019050602083039250611f5b565b6001836020036101000a03801982511681845116808217855250505050505090500182805190602001908083835b602083101515611fd35780518252602082019150602081019050602083039250611fae565b6001836020036101000a0380198251168184511680821785525050505050509050019250505060405180910390209150600860003373ffffffffffffffffffffffffffffffffffffffff1673ffffffffffffffffffffffffffffffffffffffff16815260200190815260200160002090508160001916816003015460001916141561207f5760028160020160006101000a81548160ff0219169083600281111561207957fe5b02179055505b6001600081548092919060019003919050555050505050565b60015481565b8160066000826000191660001916815260200190815260200160002060000160009054906101000a900460ff1615156120d657600080fd5b811561210f576006600084600019166000191681526020019081526020016000206001016000815480929190600101919050555061213e565b600660008460001916600019168152602001908152602001600020600101600081548092919060010191905055505b505050565b8060076000826000191660001916815260200190815260200160002060020160009054906101000a900460ff16151561217b57600080fd5b813373ffffffffffffffffffffffffffffffffffffffff1660076000836000191660001916815260200190815260200160002060000160009054906101000a900473ffffffffffffffffffffffffffffffffffffffff1673ffffffffffffffffffffffffffffffffffffffff161415156121f457600080fd5b600060076000856000191660001916815260200190815260200160002060020160016101000a81548160ff021916908315150217905550505050565b612238612fb4565b6000612242612fb4565b600061224c613045565b60008610158015612261575060058054905086105b151561226c57600080fd5b60058681548110151561227b57fe5b906000526020600020900160009054906101000a900473ffffffffffffffffffffffffffffffffffffffff169150600860008373ffffffffffffffffffffffffffffffffffffffff1673ffffffffffffffffffffffffffffffffffffffff16815260200190815260200160002060e06040519081016040529081600082018054600181600116156101000203166002900480601f01602080910402602001604051908101604052809291908181526020018280546001816001161561010002031660029004801561238d5780601f106123625761010080835404028352916020019161238d565b820191906000526020600020905b81548152906001019060200180831161237057829003601f168201915b50505050508152602001600182018054600181600116156101000203166002900480601f01602080910402602001604051908101604052809291908181526020018280546001816001161561010002031660029004801561242f5780601f106124045761010080835404028352916020019161242f565b820191906000526020600020905b81548152906001019060200180831161241257829003601f168201915b505050505081526020016002820160009054906101000a900460ff16600281111561245657fe5b600281111561246157fe5b815260200160038201546000191660001916815260200160048201548152602001600582018054600181600116156101000203166002900480601f01602080910402602001604051908101604052809291908181526020018280546001816001161561010002031660029004801561251a5780601f106124ef5761010080835404028352916020019161251a565b820191906000526020600020905b8154815290600101906020018083116124fd57829003601f168201915b50505050508152602001600682018054806020026020016040519081016040528092919081815260200182805480156125a857602002820191906000526020600020905b8160009054906101000a900473ffffffffffffffffffffffffffffffffffffffff1673ffffffffffffffffffffffffffffffffffffffff168152602001906001019080831161255e575b5050505050815250509050806000015181608001518260a0015182925080905094509450945050509193909250565b60006125e1613045565b83836040518083805190602001908083835b60208310151561261857805182526020820191506020810190506020830392506125f3565b6001836020036101000a03801982511681845116808217855250505050505090500182805190602001908083835b60208310151561266b5780518252602082019150602081019050602083039250612646565b6001836020036101000a0380198251168184511680821785525050505050509050019250505060405180910390209150600860003373ffffffffffffffffffffffffffffffffffffffff1673ffffffffffffffffffffffffffffffffffffffff16815260200190815260200160002060e06040519081016040529081600082018054600181600116156101000203166002900480601f01602080910402602001604051908101604052809291908181526020018280546001816001161561010002031660029004801561277f5780601f106127545761010080835404028352916020019161277f565b820191906000526020600020905b81548152906001019060200180831161276257829003601f168201915b50505050508152602001600182018054600181600116156101000203166002900480601f0160208091040260200160405190810160405280929190818152602001828054600181600116156101000203166002900480156128215780601f106127f657610100808354040283529160200191612821565b820191906000526020600020905b81548152906001019060200180831161280457829003601f168201915b505050505081526020016002820160009054906101000a900460ff16600281111561284857fe5b600281111561285357fe5b815260200160038201546000191660001916815260200160048201548152602001600582018054600181600116156101000203166002900480601f01602080910402602001604051908101604052809291908181526020018280546001816001161561010002031660029004801561290c5780601f106128e15761010080835404028352916020019161290c565b820191906000526020600020905b8154815290600101906020018083116128ef57829003601f168201915b505050505081526020016006820180548060200260200160405190810160405280929190818152602001828054801561299a57602002820191906000526020600020905b8160009054906101000a900473ffffffffffffffffffffffffffffffffffffffff1673ffffffffffffffffffffffffffffffffffffffff1681526020019060010190808311612950575b505050505081525050905060a060405190810160405280600115158152602001600081526020018581526020018481526020018260a0015181525060066000846000191660001916815260200190815260200160002060008201518160000160006101000a81548160ff021916908315150217905550602082015181600101556040820151816002019080519060200190612a36929190612f08565b506060820151816003019080519060200190612a53929190612f08565b506080820151816004019080519060200190612a70929190612f08565b5090505060038054806001018281612a889190612f88565b9160005260206000209001600084909190915090600019169055506002600081548092919060010191905055507f89ae8498578c3652fb0445236df1d932978a443780600bed0c363101576c62da8285856040518084600019166000191681526020018060200180602001838103835285818151815260200191508051906020019080838360005b83811015612b2b578082015181840152602081019050612b10565b50505050905090810190601f168015612b585780820380516001836020036101000a031916815260200191505b50838103825284818151815260200191508051906020019080838360005b83811015612b91578082015181840152602081019050612b76565b50505050905090810190601f168015612bbe5780820380516001836020036101000a031916815260200191505b509550505050505060405180910390a150505050565b6000612bde612fb4565b8260066000826000191660001916815260200190815260200160002060000160009054906101000a900460ff161515612c1657600080fd5b60066000856000191660001916815260200190815260200160002060010154600660008660001916600019168152602001908152602001600020600201808054600181600116156101000203166002900480601f016020809104026020016040519081016040528092919081815260200182805460018160011615610100020316600290048015612ce85780601f10612cbd57610100808354040283529160200191612ce8565b820191906000526020600020905b815481529060010190602001808311612ccb57829003601f168201915b505050505090509250925050915091565b60005481565b600080821415612d125760009050612d4d565b6001821415612d245760019050612d4d565b6002821415612d365760029050612d4d565b6003821415612d485760039050612d4d565b600490505b919050565b612d5a612fb4565b60006004811115612d6757fe5b826004811115612d7357fe5b1415612db6576040805190810160405280600b81526020017f5265736964656e7469616c0000000000000000000000000000000000000000008152509050612f03565b60016004811115612dc357fe5b826004811115612dcf57fe5b1415612e12576040805190810160405280600a81526020017f496e647573747269616c000000000000000000000000000000000000000000008152509050612f03565b60026004811115612e1f57fe5b826004811115612e2b57fe5b1415612e6e576040805190810160405280600c81526020017f4167726963756c747572616c00000000000000000000000000000000000000008152509050612f03565b60036004811115612e7b57fe5b826004811115612e8757fe5b1415612eca576040805190810160405280600981526020017f436f6d6d756e69747900000000000000000000000000000000000000000000008152509050612f03565b6040805190810160405280600581526020017f4f7468657200000000000000000000000000000000000000000000000000000081525090505b919050565b828054600181600116156101000203166002900490600052602060002090601f016020900481019282601f10612f4957805160ff1916838001178555612f77565b82800160010185558215612f77579182015b82811115612f76578251825591602001919060010190612f5b565b5b509050612f84919061315f565b5090565b815481835581811511612faf57818360005260206000209182019101612fae9190613184565b5b505050565b602060405190810160405280600081525090565b61010060405190810160405280600073ffffffffffffffffffffffffffffffffffffffff168152602001600081526020016000151581526020016000151581526020016000600481111561301857fe5b81526020016130256131a9565b81526020016130326131a9565b815260200161303f6131a9565b81525090565b60e0604051908101604052806130596131a9565b81526020016130666131a9565b81526020016000600281111561307857fe5b815260200160008019168152602001600081526020016130966131a9565b81526020016130a36131bd565b81525090565b828054828255906000526020600020908101928215613122579160200282015b828111156131215782518260006101000a81548173ffffffffffffffffffffffffffffffffffffffff021916908373ffffffffffffffffffffffffffffffffffffffff160217905550916020019190600101906130c9565b5b50905061312f91906131d1565b5090565b81548183558181151161315a57818360005260206000209182019101613159919061315f565b5b505050565b61318191905b8082111561317d576000816000905550600101613165565b5090565b90565b6131a691905b808211156131a257600081600090555060010161318a565b5090565b90565b602060405190810160405280600081525090565b602060405190810160405280600081525090565b61321191905b8082111561320d57600081816101000a81549073ffffffffffffffffffffffffffffffffffffffff0219169055506001016131d7565b5090565b905600a165627a7a723058207bd73673cbc97bc6550c32a85fbf2e519ae3b976aa09f8e6d08d881c8790e45b0029",
  "source": "pragma solidity ^0.4.4;\n\ncontract Colonizer {\n\n  enum HabitantState { offline, online, archieved }\n  enum AssetType { Residential, Industrial, Agricultural, Community, Other }\n\n  struct Habitant {\n\n    string fullName;\n    string username;\n    HabitantState status;\n    bytes32 passwordhash;\n    uint256 penaltyScore;\n    string colony;\n\n    address[] relatives;\n  }\n\n  struct Asset {\n    address owner;\n\n    uint256 value;\n\n    bool valid;\n    bool onSale;\n\n    AssetType assetType;\n\n    string description;\n    string longitude;\n    string latitude;\n  }\n\n  struct ColonyLaw {\n\n    bool valid;\n    uint256 vote;\n\n    string title;\n    string description;\n    string colony;\n\n  }\n\n  uint256 public assetCount;\n  uint256 public habitantCount;\n  uint256 public colonyLawCount;\n\n  bytes32[] colonyLawKeys;\n  bytes32[] assetKeys;\n  address[] habitantKeys;\n\n  // Mapping Storage\n  mapping (bytes32 => ColonyLaw) colonylawStorage; //\n  mapping (bytes32 => Asset) assetsStorage; // store assetsStorage registered\n  mapping (address => Habitant) habitantsStorage; // store user by address\n\n  // Events\n  event ProposalEvent(bytes32 id, string title, string proposal);\n\n  // Function Modifiers\n  modifier habitantOnline() { require(habitantsStorage[msg.sender].status == HabitantState.online);_; }\n  modifier assetValid(bytes32 _id) { require(assetsStorage[_id].valid);_; }\n  modifier isAssetOwner(bytes32 _id) { require(assetsStorage[_id].owner == msg.sender);_; }\n  modifier isProposalValid(bytes32 _id) { require(colonylawStorage[_id].valid);_; }\n\n  function broadcastProposal(string _title, string _proposal) public {\n    bytes32 _key = keccak256(_title, _proposal);\n    Habitant memory caller = habitantsStorage[msg.sender];\n\n    colonylawStorage[_key] = ColonyLaw(true, 0, _title, _proposal, caller.colony);\n    colonyLawKeys.push(_key);\n    colonyLawCount++;\n    ProposalEvent(_key, _title, _proposal);\n  }\n\n  function callVote(bytes32 _proposalId, bool vote) public isProposalValid(_proposalId) {\n    if (vote) { colonylawStorage[_proposalId].vote++; }\n    else { colonylawStorage[_proposalId].vote++; }\n  }\n\n  function getProposalByID(bytes32 _id) public view isProposalValid(_id) returns(uint256 vote, string title) {\n    return(colonylawStorage[_id].vote, colonylawStorage[_id].title);\n  }\n\n  function getMyDetails() public view habitantOnline\n  returns(string fullName, string username, uint256 penaltyScore, string colony)\n  {\n    Habitant memory habitant = habitantsStorage[msg.sender];\n    return(habitant.fullName, habitant.username, habitant.penaltyScore, habitant.colony);\n  }\n\n  function registerHabitant (string fullname, string username, string password, string colony) public {\n    bytes32 passwordhash = keccak256(username, password);\n\n    habitantsStorage[msg.sender] = Habitant(fullname, username, HabitantState.online, passwordhash, 0, colony, new address[](0));\n    habitantKeys.push(msg.sender);\n\n    habitantCount++;\n  }\n\n  function deRegister (string username, string password) public {\n    bytes32 passwordhash = keccak256(username, password);\n\n    Habitant storage habitant = habitantsStorage[msg.sender];\n    if (habitant.passwordhash == passwordhash) {\n      habitant.status = HabitantState.archieved;\n    }\n\n    habitantCount--;\n  }\n\n  function getHabitantByIndex(uint256 _index) public view returns(string fullname, uint256 penaltyScore, string colony) {\n    require(_index >= 0 && _index < habitantKeys.length);\n    address _key = habitantKeys[_index];\n    Habitant memory habitant = habitantsStorage[_key];\n\n    return(habitant.fullName, habitant.penaltyScore, habitant.colony);\n  }\n\n  function getCurrentState () public view returns (HabitantState) {\n    return habitantsStorage[msg.sender].status;\n  }\n\n//-- Private Helper Functions for Asset -- //\n  function getAssetTypeFromIndex(uint256 _index) pure private returns (AssetType) {\n    if (_index == 0) { return AssetType.Residential; }\n    else if (_index == 1) { return AssetType.Industrial; }\n    else if (_index == 2) { return AssetType.Agricultural; }\n    else if (_index == 3) { return AssetType.Community; }\n    else { return AssetType.Other; }\n  }\n\n  function convertAssetTypeToString(AssetType _type) pure private returns (string) {\n    if (_type == AssetType.Residential) return('Residential');\n    else if (_type == AssetType.Industrial) return('Industrial');\n    else if (_type == AssetType.Agricultural) return('Agricultural');\n    else if (_type == AssetType.Community) return('Community');\n    else return('Other');\n  }\n//-- end --//\n\n  function registerAsset(uint256 _value, string _description, uint256 _assetType, string _longitude, string _latitude)\n  public habitantOnline {\n    var assetId = keccak256(_assetType, _longitude, _latitude);\n\n    AssetType assetType = getAssetTypeFromIndex(_assetType);\n\n    assetsStorage[assetId] = Asset({\n      owner: msg.sender,\n      value: _value,\n      valid: true,\n      onSale: false,\n      description: _description,\n      assetType: assetType,\n      longitude: _longitude,\n      latitude: _latitude\n    });\n\n    assetKeys.push(assetId);\n    assetCount++;\n  }\n\n  function buyAsset(bytes32 _assetId) public payable assetValid(_assetId) {\n    Asset storage currentAsset = assetsStorage[_assetId];\n    require(currentAsset.owner != msg.sender);\n    require(currentAsset.onSale);\n    require(msg.value >= currentAsset.value);\n\n    currentAsset.owner.transfer(msg.value);\n\n    currentAsset.owner = msg.sender;\n    currentAsset.onSale = false;\n  }\n\n  function sellAsset(bytes32 _assetId, uint256 _value) public assetValid(_assetId) isAssetOwner(_assetId) {\n    Asset storage currentAsset = assetsStorage[_assetId];\n\n    require(currentAsset.owner == msg.sender);\n    currentAsset.onSale = true;\n    currentAsset.value = _value;\n  }\n\n  function delistAsset(bytes32 _assetId) public assetValid(_assetId) isAssetOwner(_assetId) {\n    assetsStorage[_assetId].onSale = false;\n  }\n\n  function getAssetByIndex(uint256 _index) public view returns(\n    bytes32 assetId, string ownerUsername, string colony, uint256 value, bool onSale,\n    string assetType, string description, string longitude, string latitude\n  ){\n    require(_index >= 0 && _index < assetKeys.length);\n    bytes32 _key = assetKeys[_index];\n    Asset memory asset = assetsStorage[_key];\n    Habitant memory owner = habitantsStorage[asset.owner];\n\n    return(\n      _key, owner.username, owner.colony, asset.value, asset.onSale,\n      convertAssetTypeToString(asset.assetType), asset.description, asset.longitude, asset.latitude\n    );\n  }\n\n}\n",
  "sourcePath": "/Users/wlwanpan/ethereum_lab/Colonizer/contracts/Colonizer.sol",
  "compiler": {
    "name": "solc",
    "version": "0.4.18+commit.9cf6e910.Emscripten.clang"
  },
  "schemaVersion": "1.0.1",
  "updatedAt": "2018-03-18T16:00:27.657Z"
}