{
  "contractName": "Colonizer",
  "abi": [
    {
      "constant": false,
      "inputs": [
        {
          "name": "_value",
          "type": "uint256"
        },
        {
          "name": "_description",
          "type": "string"
        },
        {
          "name": "_assetType",
          "type": "uint256"
        },
        {
          "name": "_longitude",
          "type": "string"
        },
        {
          "name": "_latitude",
          "type": "string"
        }
      ],
      "name": "registerAsset",
      "outputs": [],
      "payable": false,
      "stateMutability": "nonpayable",
      "type": "function"
    },
    {
      "constant": true,
      "inputs": [
        {
          "name": "_index",
          "type": "uint256"
        }
      ],
      "name": "getAssetByIndex",
      "outputs": [
        {
          "name": "assetId",
          "type": "bytes32"
        },
        {
          "name": "ownerUsername",
          "type": "string"
        },
        {
          "name": "colony",
          "type": "string"
        },
        {
          "name": "value",
          "type": "uint256"
        },
        {
          "name": "onSale",
          "type": "bool"
        },
        {
          "name": "assetType",
          "type": "string"
        },
        {
          "name": "description",
          "type": "string"
        },
        {
          "name": "longitude",
          "type": "string"
        },
        {
          "name": "latitude",
          "type": "string"
        }
      ],
      "payable": false,
      "stateMutability": "view",
      "type": "function"
    },
    {
      "constant": false,
      "inputs": [
        {
          "name": "fullname",
          "type": "string"
        },
        {
          "name": "username",
          "type": "string"
        },
        {
          "name": "password",
          "type": "string"
        },
        {
          "name": "colony",
          "type": "string"
        }
      ],
      "name": "registerHabitant",
      "outputs": [],
      "payable": false,
      "stateMutability": "nonpayable",
      "type": "function"
    },
    {
      "constant": false,
      "inputs": [
        {
          "name": "_assetId",
          "type": "bytes32"
        },
        {
          "name": "_value",
          "type": "uint256"
        }
      ],
      "name": "sellAsset",
      "outputs": [],
      "payable": false,
      "stateMutability": "nonpayable",
      "type": "function"
    },
    {
      "constant": true,
      "inputs": [],
      "name": "getCurrentState",
      "outputs": [
        {
          "name": "",
          "type": "uint8"
        }
      ],
      "payable": false,
      "stateMutability": "view",
      "type": "function"
    },
    {
      "constant": false,
      "inputs": [
        {
          "name": "_assetId",
          "type": "bytes32"
        }
      ],
      "name": "buyAsset",
      "outputs": [],
      "payable": true,
      "stateMutability": "payable",
      "type": "function"
    },
    {
      "constant": true,
      "inputs": [],
      "name": "getMyDetails",
      "outputs": [
        {
          "name": "fullName",
          "type": "string"
        },
        {
          "name": "username",
          "type": "string"
        },
        {
          "name": "penaltyScore",
          "type": "uint256"
        },
        {
          "name": "colony",
          "type": "string"
        }
      ],
      "payable": false,
      "stateMutability": "view",
      "type": "function"
    },
    {
      "constant": true,
      "inputs": [],
      "name": "colonyLawCount",
      "outputs": [
        {
          "name": "",
          "type": "uint256"
        }
      ],
      "payable": false,
      "stateMutability": "view",
      "type": "function"
    },
    {
      "constant": false,
      "inputs": [
        {
          "name": "username",
          "type": "string"
        },
        {
          "name": "password",
          "type": "string"
        }
      ],
      "name": "deRegister",
      "outputs": [],
      "payable": false,
      "stateMutability": "nonpayable",
      "type": "function"
    },
    {
      "constant": true,
      "inputs": [],
      "name": "habitantCount",
      "outputs": [
        {
          "name": "",
          "type": "uint256"
        }
      ],
      "payable": false,
      "stateMutability": "view",
      "type": "function"
    },
    {
      "constant": false,
      "inputs": [
        {
          "name": "_assetId",
          "type": "bytes32"
        }
      ],
      "name": "delistAsset",
      "outputs": [],
      "payable": false,
      "stateMutability": "nonpayable",
      "type": "function"
    },
    {
      "constant": true,
      "inputs": [
        {
          "name": "_index",
          "type": "uint256"
        }
      ],
      "name": "getHabitantByIndex",
      "outputs": [
        {
          "name": "fullname",
          "type": "string"
        },
        {
          "name": "penaltyScore",
          "type": "uint256"
        },
        {
          "name": "colony",
          "type": "string"
        }
      ],
      "payable": false,
      "stateMutability": "view",
      "type": "function"
    },
    {
      "constant": true,
      "inputs": [],
      "name": "assetCount",
      "outputs": [
        {
          "name": "",
          "type": "uint256"
        }
      ],
      "payable": false,
      "stateMutability": "view",
      "type": "function"
    }
  ],
  "bytecode": "0x6060604052341561000f57600080fd5b6128df8061001e6000396000f3006060604052600436106100c5576000357c0100000000000000000000000000000000000000000000000000000000900463ffffffff168063032f3ad2146100ca5780630fe0ff41146101bf57806314d74a92146104985780631b98d07e146105be578063378aa701146105ee5780633f383ef514610625578063431bbb7e146106415780634d8f7e69146107ae578063734ecf8c146107d75780639264a48914610877578063e06e60a5146108a0578063e0f2f6a5146108c7578063eafe7a74146109d6575b600080fd5b34156100d557600080fd5b6101bd600480803590602001909190803590602001908201803590602001908080601f0160208091040260200160405190810160405280939291908181526020018383808284378201915050505050509190803590602001909190803590602001908201803590602001908080601f0160208091040260200160405190810160405280939291908181526020018383808284378201915050505050509190803590602001908201803590602001908080601f016020809104026020016040519081016040528093929190818152602001838380828437820191505050505050919050506109ff565b005b34156101ca57600080fd5b6101e06004808035906020019091905050610d1d565b604051808a600019166000191681526020018060200180602001898152602001881515151581526020018060200180602001806020018060200187810387528f818151815260200191508051906020019080838360005b83811015610252578082015181840152602081019050610237565b50505050905090810190601f16801561027f5780820380516001836020036101000a031916815260200191505b5087810386528e818151815260200191508051906020019080838360005b838110156102b857808201518184015260208101905061029d565b50505050905090810190601f1680156102e55780820380516001836020036101000a031916815260200191505b5087810385528b818151815260200191508051906020019080838360005b8381101561031e578082015181840152602081019050610303565b50505050905090810190601f16801561034b5780820380516001836020036101000a031916815260200191505b5087810384528a818151815260200191508051906020019080838360005b83811015610384578082015181840152602081019050610369565b50505050905090810190601f1680156103b15780820380516001836020036101000a031916815260200191505b50878103835289818151815260200191508051906020019080838360005b838110156103ea5780820151818401526020810190506103cf565b50505050905090810190601f1680156104175780820380516001836020036101000a031916815260200191505b50878103825288818151815260200191508051906020019080838360005b83811015610450578082015181840152602081019050610435565b50505050905090810190601f16801561047d5780820380516001836020036101000a031916815260200191505b509f5050505050505050505050505050505060405180910390f35b34156104a357600080fd5b6105bc600480803590602001908201803590602001908080601f0160208091040260200160405190810160405280939291908181526020018383808284378201915050505050509190803590602001908201803590602001908080601f0160208091040260200160405190810160405280939291908181526020018383808284378201915050505050509190803590602001908201803590602001908080601f0160208091040260200160405190810160405280939291908181526020018383808284378201915050505050509190803590602001908201803590602001908080601f016020809104026020016040519081016040528093929190818152602001838380828437820191505050505050919050506113e4565b005b34156105c957600080fd5b6105ec600480803560001916906020019091908035906020019091905050611679565b005b34156105f957600080fd5b6106016117d4565b6040518082600281111561061157fe5b60ff16815260200191505060405180910390f35b61063f60048080356000191690602001909190505061182b565b005b341561064c57600080fd5b6106546119da565b60405180806020018060200185815260200180602001848103845288818151815260200191508051906020019080838360005b838110156106a2578082015181840152602081019050610687565b50505050905090810190601f1680156106cf5780820380516001836020036101000a031916815260200191505b50848103835287818151815260200191508051906020019080838360005b838110156107085780820151818401526020810190506106ed565b50505050905090810190601f1680156107355780820380516001836020036101000a031916815260200191505b50848103825285818151815260200191508051906020019080838360005b8381101561076e578082015181840152602081019050610753565b50505050905090810190601f16801561079b5780820380516001836020036101000a031916815260200191505b5097505050505050505060405180910390f35b34156107b957600080fd5b6107c1611da6565b6040518082815260200191505060405180910390f35b34156107e257600080fd5b610875600480803590602001908201803590602001908080601f0160208091040260200160405190810160405280939291908181526020018383808284378201915050505050509190803590602001908201803590602001908080601f01602080910402602001604051908101604052809392919081815260200183838082843782019150505050505091905050611dac565b005b341561088257600080fd5b61088a611efe565b6040518082815260200191505060405180910390f35b34156108ab57600080fd5b6108c5600480803560001916906020019091905050611f04565b005b34156108d257600080fd5b6108e86004808035906020019091905050611ff1565b604051808060200184815260200180602001838103835286818151815260200191508051906020019080838360005b83811015610932578082015181840152602081019050610917565b50505050905090810190601f16801561095f5780820380516001836020036101000a031916815260200191505b50838103825284818151815260200191508051906020019080838360005b8381101561099857808201518184015260208101905061097d565b50505050905090810190601f1680156109c55780820380516001836020036101000a031916815260200191505b509550505050505060405180910390f35b34156109e157600080fd5b6109e9612398565b6040518082815260200191505060405180910390f35b60008060016002811115610a0f57fe5b600860003373ffffffffffffffffffffffffffffffffffffffff1673ffffffffffffffffffffffffffffffffffffffff16815260200190815260200160002060020160009054906101000a900460ff166002811115610a6a57fe5b141515610a7657600080fd5b8484846040518084815260200183805190602001908083835b602083101515610ab45780518252602082019150602081019050602083039250610a8f565b6001836020036101000a03801982511681845116808217855250505050505090500182805190602001908083835b602083101515610b075780518252602082019150602081019050602083039250610ae2565b6001836020036101000a038019825116818451168082178552505050505050905001935050505060405180910390209150610b418561239e565b9050610100604051908101604052803373ffffffffffffffffffffffffffffffffffffffff168152602001888152602001600115158152602001600015158152602001826004811115610b9057fe5b81526020018781526020018581526020018481525060076000846000191660001916815260200190815260200160002060008201518160000160006101000a81548173ffffffffffffffffffffffffffffffffffffffff021916908373ffffffffffffffffffffffffffffffffffffffff1602179055506020820151816001015560408201518160020160006101000a81548160ff02191690831515021790555060608201518160020160016101000a81548160ff02191690831515021790555060808201518160020160026101000a81548160ff02191690836004811115610c7557fe5b021790555060a0820151816003019080519060200190610c969291906125a7565b5060c0820151816004019080519060200190610cb39291906125a7565b5060e0820151816005019080519060200190610cd09291906125a7565b5090505060048054806001018281610ce89190612627565b916000526020600020900160008490919091509060001916905550600080815480929190600101919050555050505050505050565b6000610d27612653565b610d2f612653565b600080610d3a612653565b610d42612653565b610d4a612653565b610d52612653565b6000610d5c612667565b610d646126e4565b60008d10158015610d7957506004805490508d105b1515610d8457600080fd5b60048d815481101515610d9357fe5b906000526020600020900154925060076000846000191660001916815260200190815260200160002061010060405190810160405290816000820160009054906101000a900473ffffffffffffffffffffffffffffffffffffffff1673ffffffffffffffffffffffffffffffffffffffff1673ffffffffffffffffffffffffffffffffffffffff168152602001600182015481526020016002820160009054906101000a900460ff161515151581526020016002820160019054906101000a900460ff161515151581526020016002820160029054906101000a900460ff166004811115610e7d57fe5b6004811115610e8857fe5b8152602001600382018054600181600116156101000203166002900480601f016020809104026020016040519081016040528092919081815260200182805460018160011615610100020316600290048015610f255780601f10610efa57610100808354040283529160200191610f25565b820191906000526020600020905b815481529060010190602001808311610f0857829003601f168201915b50505050508152602001600482018054600181600116156101000203166002900480601f016020809104026020016040519081016040528092919081815260200182805460018160011615610100020316600290048015610fc75780601f10610f9c57610100808354040283529160200191610fc7565b820191906000526020600020905b815481529060010190602001808311610faa57829003601f168201915b50505050508152602001600582018054600181600116156101000203166002900480601f0160208091040260200160405190810160405280929190818152602001828054600181600116156101000203166002900480156110695780601f1061103e57610100808354040283529160200191611069565b820191906000526020600020905b81548152906001019060200180831161104c57829003601f168201915b505050505081525050915060086000836000015173ffffffffffffffffffffffffffffffffffffffff1673ffffffffffffffffffffffffffffffffffffffff16815260200190815260200160002060e06040519081016040529081600082018054600181600116156101000203166002900480601f01602080910402602001604051908101604052809291908181526020018280546001816001161561010002031660029004801561115c5780601f106111315761010080835404028352916020019161115c565b820191906000526020600020905b81548152906001019060200180831161113f57829003601f168201915b50505050508152602001600182018054600181600116156101000203166002900480601f0160208091040260200160405190810160405280929190818152602001828054600181600116156101000203166002900480156111fe5780601f106111d3576101008083540402835291602001916111fe565b820191906000526020600020905b8154815290600101906020018083116111e157829003601f168201915b505050505081526020016002820160009054906101000a900460ff16600281111561122557fe5b600281111561123057fe5b815260200160038201546000191660001916815260200160048201548152602001600582018054600181600116156101000203166002900480601f0160208091040260200160405190810160405280929190818152602001828054600181600116156101000203166002900480156112e95780601f106112be576101008083540402835291602001916112e9565b820191906000526020600020905b8154815290600101906020018083116112cc57829003601f168201915b505050505081526020016006820180548060200260200160405190810160405280929190818152602001828054801561137757602002820191906000526020600020905b8160009054906101000a900473ffffffffffffffffffffffffffffffffffffffff1673ffffffffffffffffffffffffffffffffffffffff168152602001906001019080831161132d575b50505050508152505090508281602001518260a00151846020015185606001516113a487608001516123f1565b8760a001518860c001518960e001518797508696508292508191508090509b509b509b509b509b509b509b509b509b505050509193959799909294969850565b600083836040518083805190602001908083835b60208310151561141d57805182526020820191506020810190506020830392506113f8565b6001836020036101000a03801982511681845116808217855250505050505090500182805190602001908083835b602083101515611470578051825260208201915060208101905060208303925061144b565b6001836020036101000a038019825116818451168082178552505050505050905001925050506040518091039020905060e060405190810160405280868152602001858152602001600160028111156114c557fe5b8152602001826000191681526020016000815260200183815260200160006040518059106114f05750595b9080825280602002602001820160405250815250600860003373ffffffffffffffffffffffffffffffffffffffff1673ffffffffffffffffffffffffffffffffffffffff168152602001908152602001600020600082015181600001908051906020019061155f9291906125a7565b50602082015181600101908051906020019061157c9291906125a7565b5060408201518160020160006101000a81548160ff021916908360028111156115a157fe5b0217905550606082015181600301906000191690556080820151816004015560a08201518160050190805190602001906115dc9291906125a7565b5060c08201518160060190805190602001906115f9929190612748565b509050506005805480600101828161161191906127d2565b9160005260206000209001600033909190916101000a81548173ffffffffffffffffffffffffffffffffffffffff021916908373ffffffffffffffffffffffffffffffffffffffff160217905550506001600081548092919060010191905055505050505050565b60008260076000826000191660001916815260200190815260200160002060020160009054906101000a900460ff1615156116b357600080fd5b833373ffffffffffffffffffffffffffffffffffffffff1660076000836000191660001916815260200190815260200160002060000160009054906101000a900473ffffffffffffffffffffffffffffffffffffffff1673ffffffffffffffffffffffffffffffffffffffff1614151561172c57600080fd5b60076000866000191660001916815260200190815260200160002092503373ffffffffffffffffffffffffffffffffffffffff168360000160009054906101000a900473ffffffffffffffffffffffffffffffffffffffff1673ffffffffffffffffffffffffffffffffffffffff161415156117a757600080fd5b60018360020160016101000a81548160ff0219169083151502179055508383600101819055505050505050565b6000600860003373ffffffffffffffffffffffffffffffffffffffff1673ffffffffffffffffffffffffffffffffffffffff16815260200190815260200160002060020160009054906101000a900460ff16905090565b60008160076000826000191660001916815260200190815260200160002060020160009054906101000a900460ff16151561186557600080fd5b60076000846000191660001916815260200190815260200160002091503373ffffffffffffffffffffffffffffffffffffffff168260000160009054906101000a900473ffffffffffffffffffffffffffffffffffffffff1673ffffffffffffffffffffffffffffffffffffffff16141515156118e157600080fd5b8160020160019054906101000a900460ff1615156118fe57600080fd5b8160010154341015151561191157600080fd5b8160000160009054906101000a900473ffffffffffffffffffffffffffffffffffffffff1673ffffffffffffffffffffffffffffffffffffffff166108fc349081150290604051600060405180830381858888f19350505050151561197557600080fd5b338260000160006101000a81548173ffffffffffffffffffffffffffffffffffffffff021916908373ffffffffffffffffffffffffffffffffffffffff16021790555060008260020160016101000a81548160ff021916908315150217905550505050565b6119e2612653565b6119ea612653565b60006119f4612653565b6119fc6126e4565b60016002811115611a0957fe5b600860003373ffffffffffffffffffffffffffffffffffffffff1673ffffffffffffffffffffffffffffffffffffffff16815260200190815260200160002060020160009054906101000a900460ff166002811115611a6457fe5b141515611a7057600080fd5b600860003373ffffffffffffffffffffffffffffffffffffffff1673ffffffffffffffffffffffffffffffffffffffff16815260200190815260200160002060e06040519081016040529081600082018054600181600116156101000203166002900480601f016020809104026020016040519081016040528092919081815260200182805460018160011615610100020316600290048015611b545780601f10611b2957610100808354040283529160200191611b54565b820191906000526020600020905b815481529060010190602001808311611b3757829003601f168201915b50505050508152602001600182018054600181600116156101000203166002900480601f016020809104026020016040519081016040528092919081815260200182805460018160011615610100020316600290048015611bf65780601f10611bcb57610100808354040283529160200191611bf6565b820191906000526020600020905b815481529060010190602001808311611bd957829003601f168201915b505050505081526020016002820160009054906101000a900460ff166002811115611c1d57fe5b6002811115611c2857fe5b815260200160038201546000191660001916815260200160048201548152602001600582018054600181600116156101000203166002900480601f016020809104026020016040519081016040528092919081815260200182805460018160011615610100020316600290048015611ce15780601f10611cb657610100808354040283529160200191611ce1565b820191906000526020600020905b815481529060010190602001808311611cc457829003601f168201915b5050505050815260200160068201805480602002602001604051908101604052809291908181526020018280548015611d6f57602002820191906000526020600020905b8160009054906101000a900473ffffffffffffffffffffffffffffffffffffffff1673ffffffffffffffffffffffffffffffffffffffff1681526020019060010190808311611d25575b50505050508152505090508060000151816020015182608001518360a0015183935082925080905094509450945094505090919293565b60025481565b60008083836040518083805190602001908083835b602083101515611de65780518252602082019150602081019050602083039250611dc1565b6001836020036101000a03801982511681845116808217855250505050505090500182805190602001908083835b602083101515611e395780518252602082019150602081019050602083039250611e14565b6001836020036101000a0380198251168184511680821785525050505050509050019250505060405180910390209150600860003373ffffffffffffffffffffffffffffffffffffffff1673ffffffffffffffffffffffffffffffffffffffff168152602001908152602001600020905081600019168160030154600019161415611ee55760028160020160006101000a81548160ff02191690836002811115611edf57fe5b02179055505b6001600081548092919060019003919050555050505050565b60015481565b8060076000826000191660001916815260200190815260200160002060020160009054906101000a900460ff161515611f3c57600080fd5b813373ffffffffffffffffffffffffffffffffffffffff1660076000836000191660001916815260200190815260200160002060000160009054906101000a900473ffffffffffffffffffffffffffffffffffffffff1673ffffffffffffffffffffffffffffffffffffffff16141515611fb557600080fd5b600060076000856000191660001916815260200190815260200160002060020160016101000a81548160ff021916908315150217905550505050565b611ff9612653565b6000612003612653565b600061200d6126e4565b60008610158015612022575060058054905086105b151561202d57600080fd5b60058681548110151561203c57fe5b906000526020600020900160009054906101000a900473ffffffffffffffffffffffffffffffffffffffff169150600860008373ffffffffffffffffffffffffffffffffffffffff1673ffffffffffffffffffffffffffffffffffffffff16815260200190815260200160002060e06040519081016040529081600082018054600181600116156101000203166002900480601f01602080910402602001604051908101604052809291908181526020018280546001816001161561010002031660029004801561214e5780601f106121235761010080835404028352916020019161214e565b820191906000526020600020905b81548152906001019060200180831161213157829003601f168201915b50505050508152602001600182018054600181600116156101000203166002900480601f0160208091040260200160405190810160405280929190818152602001828054600181600116156101000203166002900480156121f05780601f106121c5576101008083540402835291602001916121f0565b820191906000526020600020905b8154815290600101906020018083116121d357829003601f168201915b505050505081526020016002820160009054906101000a900460ff16600281111561221757fe5b600281111561222257fe5b815260200160038201546000191660001916815260200160048201548152602001600582018054600181600116156101000203166002900480601f0160208091040260200160405190810160405280929190818152602001828054600181600116156101000203166002900480156122db5780601f106122b0576101008083540402835291602001916122db565b820191906000526020600020905b8154815290600101906020018083116122be57829003601f168201915b505050505081526020016006820180548060200260200160405190810160405280929190818152602001828054801561236957602002820191906000526020600020905b8160009054906101000a900473ffffffffffffffffffffffffffffffffffffffff1673ffffffffffffffffffffffffffffffffffffffff168152602001906001019080831161231f575b5050505050815250509050806000015181608001518260a0015182925080905094509450945050509193909250565b60005481565b6000808214156123b157600090506123ec565b60018214156123c357600190506123ec565b60028214156123d557600290506123ec565b60038214156123e757600390506123ec565b600490505b919050565b6123f9612653565b6000600481111561240657fe5b82600481111561241257fe5b1415612455576040805190810160405280600b81526020017f5265736964656e7469616c00000000000000000000000000000000000000000081525090506125a2565b6001600481111561246257fe5b82600481111561246e57fe5b14156124b1576040805190810160405280600a81526020017f496e647573747269616c0000000000000000000000000000000000000000000081525090506125a2565b600260048111156124be57fe5b8260048111156124ca57fe5b141561250d576040805190810160405280600c81526020017f4167726963756c747572616c000000000000000000000000000000000000000081525090506125a2565b6003600481111561251a57fe5b82600481111561252657fe5b1415612569576040805190810160405280600981526020017f436f6d6d756e697479000000000000000000000000000000000000000000000081525090506125a2565b6040805190810160405280600581526020017f4f7468657200000000000000000000000000000000000000000000000000000081525090505b919050565b828054600181600116156101000203166002900490600052602060002090601f016020900481019282601f106125e857805160ff1916838001178555612616565b82800160010185558215612616579182015b828111156126155782518255916020019190600101906125fa565b5b50905061262391906127fe565b5090565b81548183558181151161264e5781836000526020600020918201910161264d9190612823565b5b505050565b602060405190810160405280600081525090565b61010060405190810160405280600073ffffffffffffffffffffffffffffffffffffffff16815260200160008152602001600015158152602001600015158152602001600060048111156126b757fe5b81526020016126c4612848565b81526020016126d1612848565b81526020016126de612848565b81525090565b60e0604051908101604052806126f8612848565b8152602001612705612848565b81526020016000600281111561271757fe5b81526020016000801916815260200160008152602001612735612848565b815260200161274261285c565b81525090565b8280548282559060005260206000209081019282156127c1579160200282015b828111156127c05782518260006101000a81548173ffffffffffffffffffffffffffffffffffffffff021916908373ffffffffffffffffffffffffffffffffffffffff16021790555091602001919060010190612768565b5b5090506127ce9190612870565b5090565b8154818355818115116127f9578183600052602060002091820191016127f891906127fe565b5b505050565b61282091905b8082111561281c576000816000905550600101612804565b5090565b90565b61284591905b80821115612841576000816000905550600101612829565b5090565b90565b602060405190810160405280600081525090565b602060405190810160405280600081525090565b6128b091905b808211156128ac57600081816101000a81549073ffffffffffffffffffffffffffffffffffffffff021916905550600101612876565b5090565b905600a165627a7a72305820ee41cd36fb05478d638c3fcb5dc21eace84d5f5c3da61a285112dd70777848fd0029",
  "source": "pragma solidity ^0.4.4;\ncontract Colonizer {\n\n  enum HabitantState { offline, online, archieved }\n  enum AssetType { Residential, Industrial, Agricultural, Community, Other }\n\n  struct Habitant {\n\n    string fullName;\n    string username;\n    HabitantState status;\n    bytes32 passwordhash;\n    uint256 penaltyScore;\n    string colony;\n\n    address[] relatives;\n  }\n\n  struct Asset {\n    address owner;\n\n    uint256 value;\n\n    bool valid;\n    bool onSale;\n\n    AssetType assetType;\n\n    string description;\n    string longitude;\n    string latitude;\n  }\n\n  struct ColonyLaw {\n\n    uint256 penalty;\n\n    string description;\n    string colony;\n\n  }\n\n  uint256 public assetCount;\n  uint256 public habitantCount;\n  uint256 public colonyLawCount;\n\n  bytes32[] colonyLawKeys;\n  bytes32[] assetKeys;\n  address[] habitantKeys;\n\n  // Mapping Storage\n  mapping (bytes32 => ColonyLaw) colonylawStorage; //\n  mapping (bytes32 => Asset) assetsStorage; // store assetsStorage registered\n  mapping (address => Habitant) habitantsStorage; // store user by address\n\n  // Function Modifiers\n  modifier habitantOnline() { require(habitantsStorage[msg.sender].status == HabitantState.online);_; }\n  modifier assetValid(bytes32 _id) { require(assetsStorage[_id].valid);_; }\n  modifier isAssetOwner(bytes32 _id) { require(assetsStorage[_id].owner == msg.sender);_; }\n\n  function getMyDetails() public view habitantOnline\n  returns(string fullName, string username, uint256 penaltyScore, string colony)\n  {\n    Habitant memory habitant = habitantsStorage[msg.sender];\n    return(habitant.fullName, habitant.username, habitant.penaltyScore, habitant.colony);\n  }\n\n  function registerHabitant (string fullname, string username, string password, string colony) public {\n    bytes32 passwordhash = keccak256(username, password);\n\n    habitantsStorage[msg.sender] = Habitant(fullname, username, HabitantState.online, passwordhash, 0, colony, new address[](0));\n    habitantKeys.push(msg.sender);\n\n    habitantCount++;\n  }\n\n  function deRegister (string username, string password) public {\n    bytes32 passwordhash = keccak256(username, password);\n\n    Habitant storage habitant = habitantsStorage[msg.sender];\n    if (habitant.passwordhash == passwordhash) {\n      habitant.status = HabitantState.archieved;\n    }\n\n    habitantCount--;\n  }\n\n  function getHabitantByIndex(uint256 _index) public view returns(string fullname, uint256 penaltyScore, string colony) {\n    require(_index >= 0 && _index < habitantKeys.length);\n    address _key = habitantKeys[_index];\n    Habitant memory habitant = habitantsStorage[_key];\n\n    return(habitant.fullName, habitant.penaltyScore, habitant.colony);\n  }\n\n  function getCurrentState () public view returns (HabitantState) {\n    return habitantsStorage[msg.sender].status;\n  }\n\n//-- Private Helper Functions for Asset -- //\n  function getAssetTypeFromIndex(uint256 _index) pure private returns (AssetType) {\n    if (_index == 0) { return AssetType.Residential; }\n    else if (_index == 1) { return AssetType.Industrial; }\n    else if (_index == 2) { return AssetType.Agricultural; }\n    else if (_index == 3) { return AssetType.Community; }\n    else { return AssetType.Other; }\n  }\n\n  function convertAssetTypeToString(AssetType _type) pure private returns (string) {\n    if (_type == AssetType.Residential) return('Residential');\n    else if (_type == AssetType.Industrial) return('Industrial');\n    else if (_type == AssetType.Agricultural) return('Agricultural');\n    else if (_type == AssetType.Community) return('Community');\n    else return('Other');\n  }\n//-- end --//\n\n  function registerAsset(uint256 _value, string _description, uint256 _assetType, string _longitude, string _latitude)\n  public habitantOnline {\n    var assetId = keccak256(_assetType, _longitude, _latitude);\n\n    AssetType assetType = getAssetTypeFromIndex(_assetType);\n\n    assetsStorage[assetId] = Asset({\n      owner: msg.sender,\n      value: _value,\n      valid: true,\n      onSale: false,\n      description: _description,\n      assetType: assetType,\n      longitude: _longitude,\n      latitude: _latitude\n    });\n\n    assetKeys.push(assetId);\n    assetCount++;\n  }\n\n  function buyAsset(bytes32 _assetId) public payable assetValid(_assetId) {\n    Asset storage currentAsset = assetsStorage[_assetId];\n    require(currentAsset.owner != msg.sender);\n    require(currentAsset.onSale);\n    require(msg.value >= currentAsset.value);\n\n    currentAsset.owner.transfer(msg.value);\n\n    currentAsset.owner = msg.sender;\n    currentAsset.onSale = false;\n  }\n\n  function sellAsset(bytes32 _assetId, uint256 _value) public assetValid(_assetId) isAssetOwner(_assetId) {\n    Asset storage currentAsset = assetsStorage[_assetId];\n\n    require(currentAsset.owner == msg.sender);\n    currentAsset.onSale = true;\n    currentAsset.value = _value;\n  }\n\n  function delistAsset(bytes32 _assetId) public assetValid(_assetId) isAssetOwner(_assetId) {\n    assetsStorage[_assetId].onSale = false;\n  }\n\n  function getAssetByIndex(uint256 _index) public view returns(\n    bytes32 assetId, string ownerUsername, string colony, uint256 value, bool onSale,\n    string assetType, string description, string longitude, string latitude\n  ){\n    require(_index >= 0 && _index < assetKeys.length);\n    bytes32 _key = assetKeys[_index];\n    Asset memory asset = assetsStorage[_key];\n    Habitant memory owner = habitantsStorage[asset.owner];\n\n    return(\n      _key, owner.username, owner.colony, asset.value, asset.onSale,\n      convertAssetTypeToString(asset.assetType), asset.description, asset.longitude, asset.latitude\n    );\n  }\n\n}\n",
  "sourcePath": "/Users/wlwanpan/ethereum_lab/Colonizer/contracts/Colonizer.sol",
  "compiler": {
    "name": "solc",
    "version": "0.4.18+commit.9cf6e910.Emscripten.clang"
  },
  "schemaVersion": "1.0.1",
  "updatedAt": "2018-03-18T00:40:19.566Z"
}