{
  "contractName": "Colonizer",
  "abi": [
    {
      "constant": false,
      "inputs": [
        {
          "name": "_value",
          "type": "uint256"
        },
        {
          "name": "_description",
          "type": "string"
        },
        {
          "name": "_assetType",
          "type": "uint256"
        },
        {
          "name": "_longitude",
          "type": "string"
        },
        {
          "name": "_latitude",
          "type": "string"
        }
      ],
      "name": "registerAsset",
      "outputs": [],
      "payable": false,
      "stateMutability": "nonpayable",
      "type": "function"
    },
    {
      "constant": true,
      "inputs": [
        {
          "name": "_index",
          "type": "uint256"
        }
      ],
      "name": "getAssetByIndex",
      "outputs": [
        {
          "name": "assetId",
          "type": "bytes32"
        },
        {
          "name": "ownerUsername",
          "type": "string"
        },
        {
          "name": "colony",
          "type": "string"
        },
        {
          "name": "value",
          "type": "uint256"
        },
        {
          "name": "onSale",
          "type": "bool"
        },
        {
          "name": "assetType",
          "type": "string"
        },
        {
          "name": "description",
          "type": "string"
        },
        {
          "name": "longitude",
          "type": "string"
        },
        {
          "name": "latitude",
          "type": "string"
        }
      ],
      "payable": false,
      "stateMutability": "view",
      "type": "function"
    },
    {
      "constant": false,
      "inputs": [
        {
          "name": "fullname",
          "type": "string"
        },
        {
          "name": "username",
          "type": "string"
        },
        {
          "name": "password",
          "type": "string"
        },
        {
          "name": "colony",
          "type": "string"
        }
      ],
      "name": "registerHabitant",
      "outputs": [],
      "payable": false,
      "stateMutability": "nonpayable",
      "type": "function"
    },
    {
      "constant": false,
      "inputs": [
        {
          "name": "_assetId",
          "type": "bytes32"
        },
        {
          "name": "_value",
          "type": "uint256"
        }
      ],
      "name": "sellAsset",
      "outputs": [],
      "payable": false,
      "stateMutability": "nonpayable",
      "type": "function"
    },
    {
      "constant": true,
      "inputs": [],
      "name": "getCurrentState",
      "outputs": [
        {
          "name": "",
          "type": "uint8"
        }
      ],
      "payable": false,
      "stateMutability": "view",
      "type": "function"
    },
    {
      "constant": false,
      "inputs": [
        {
          "name": "_assetId",
          "type": "bytes32"
        }
      ],
      "name": "buyAsset",
      "outputs": [],
      "payable": true,
      "stateMutability": "payable",
      "type": "function"
    },
    {
      "constant": true,
      "inputs": [],
      "name": "colonyLawCount",
      "outputs": [
        {
          "name": "",
          "type": "uint256"
        }
      ],
      "payable": false,
      "stateMutability": "view",
      "type": "function"
    },
    {
      "constant": false,
      "inputs": [
        {
          "name": "username",
          "type": "string"
        },
        {
          "name": "password",
          "type": "string"
        }
      ],
      "name": "deRegister",
      "outputs": [],
      "payable": false,
      "stateMutability": "nonpayable",
      "type": "function"
    },
    {
      "constant": true,
      "inputs": [],
      "name": "habitantCount",
      "outputs": [
        {
          "name": "",
          "type": "uint256"
        }
      ],
      "payable": false,
      "stateMutability": "view",
      "type": "function"
    },
    {
      "constant": false,
      "inputs": [
        {
          "name": "_assetId",
          "type": "bytes32"
        }
      ],
      "name": "delistAsset",
      "outputs": [],
      "payable": false,
      "stateMutability": "nonpayable",
      "type": "function"
    },
    {
      "constant": true,
      "inputs": [
        {
          "name": "_index",
          "type": "uint256"
        }
      ],
      "name": "getHabitantByIndex",
      "outputs": [
        {
          "name": "fullname",
          "type": "string"
        },
        {
          "name": "penaltyScore",
          "type": "uint256"
        },
        {
          "name": "colony",
          "type": "string"
        }
      ],
      "payable": false,
      "stateMutability": "view",
      "type": "function"
    },
    {
      "constant": true,
      "inputs": [],
      "name": "assetCount",
      "outputs": [
        {
          "name": "",
          "type": "uint256"
        }
      ],
      "payable": false,
      "stateMutability": "view",
      "type": "function"
    }
  ],
  "bytecode": "0x6060604052341561000f57600080fd5b61239b8061001e6000396000f3006060604052600436106100ba576000357c0100000000000000000000000000000000000000000000000000000000900463ffffffff168063032f3ad2146100bf5780630fe0ff41146101b457806314d74a921461048d5780631b98d07e146105b3578063378aa701146105e35780633f383ef51461061a5780634d8f7e6914610636578063734ecf8c1461065f5780639264a489146106ff578063e06e60a514610728578063e0f2f6a51461074f578063eafe7a741461085e575b600080fd5b34156100ca57600080fd5b6101b2600480803590602001909190803590602001908201803590602001908080601f0160208091040260200160405190810160405280939291908181526020018383808284378201915050505050509190803590602001909190803590602001908201803590602001908080601f0160208091040260200160405190810160405280939291908181526020018383808284378201915050505050509190803590602001908201803590602001908080601f01602080910402602001604051908101604052809392919081815260200183838082843782019150505050505091905050610887565b005b34156101bf57600080fd5b6101d56004808035906020019091905050610ba5565b604051808a600019166000191681526020018060200180602001898152602001881515151581526020018060200180602001806020018060200187810387528f818151815260200191508051906020019080838360005b8381101561024757808201518184015260208101905061022c565b50505050905090810190601f1680156102745780820380516001836020036101000a031916815260200191505b5087810386528e818151815260200191508051906020019080838360005b838110156102ad578082015181840152602081019050610292565b50505050905090810190601f1680156102da5780820380516001836020036101000a031916815260200191505b5087810385528b818151815260200191508051906020019080838360005b838110156103135780820151818401526020810190506102f8565b50505050905090810190601f1680156103405780820380516001836020036101000a031916815260200191505b5087810384528a818151815260200191508051906020019080838360005b8381101561037957808201518184015260208101905061035e565b50505050905090810190601f1680156103a65780820380516001836020036101000a031916815260200191505b50878103835289818151815260200191508051906020019080838360005b838110156103df5780820151818401526020810190506103c4565b50505050905090810190601f16801561040c5780820380516001836020036101000a031916815260200191505b50878103825288818151815260200191508051906020019080838360005b8381101561044557808201518184015260208101905061042a565b50505050905090810190601f1680156104725780820380516001836020036101000a031916815260200191505b509f5050505050505050505050505050505060405180910390f35b341561049857600080fd5b6105b1600480803590602001908201803590602001908080601f0160208091040260200160405190810160405280939291908181526020018383808284378201915050505050509190803590602001908201803590602001908080601f0160208091040260200160405190810160405280939291908181526020018383808284378201915050505050509190803590602001908201803590602001908080601f0160208091040260200160405190810160405280939291908181526020018383808284378201915050505050509190803590602001908201803590602001908080601f0160208091040260200160405190810160405280939291908181526020018383808284378201915050505050509190505061126c565b005b34156105be57600080fd5b6105e1600480803560001916906020019091908035906020019091905050611501565b005b34156105ee57600080fd5b6105f661165c565b6040518082600281111561060657fe5b60ff16815260200191505060405180910390f35b6106346004808035600019169060200190919050506116b3565b005b341561064157600080fd5b610649611862565b6040518082815260200191505060405180910390f35b341561066a57600080fd5b6106fd600480803590602001908201803590602001908080601f0160208091040260200160405190810160405280939291908181526020018383808284378201915050505050509190803590602001908201803590602001908080601f01602080910402602001604051908101604052809392919081815260200183838082843782019150505050505091905050611868565b005b341561070a57600080fd5b6107126119ba565b6040518082815260200191505060405180910390f35b341561073357600080fd5b61074d6004808035600019169060200190919050506119c0565b005b341561075a57600080fd5b6107706004808035906020019091905050611aad565b604051808060200184815260200180602001838103835286818151815260200191508051906020019080838360005b838110156107ba57808201518184015260208101905061079f565b50505050905090810190601f1680156107e75780820380516001836020036101000a031916815260200191505b50838103825284818151815260200191508051906020019080838360005b83811015610820578082015181840152602081019050610805565b50505050905090810190601f16801561084d5780820380516001836020036101000a031916815260200191505b509550505050505060405180910390f35b341561086957600080fd5b610871611e54565b6040518082815260200191505060405180910390f35b6000806001600281111561089757fe5b600860003373ffffffffffffffffffffffffffffffffffffffff1673ffffffffffffffffffffffffffffffffffffffff16815260200190815260200160002060020160009054906101000a900460ff1660028111156108f257fe5b1415156108fe57600080fd5b8484846040518084815260200183805190602001908083835b60208310151561093c5780518252602082019150602081019050602083039250610917565b6001836020036101000a03801982511681845116808217855250505050505090500182805190602001908083835b60208310151561098f578051825260208201915060208101905060208303925061096a565b6001836020036101000a0380198251168184511680821785525050505050509050019350505050604051809103902091506109c985611e5a565b9050610100604051908101604052803373ffffffffffffffffffffffffffffffffffffffff168152602001888152602001600115158152602001600015158152602001826004811115610a1857fe5b81526020018781526020018581526020018481525060076000846000191660001916815260200190815260200160002060008201518160000160006101000a81548173ffffffffffffffffffffffffffffffffffffffff021916908373ffffffffffffffffffffffffffffffffffffffff1602179055506020820151816001015560408201518160020160006101000a81548160ff02191690831515021790555060608201518160020160016101000a81548160ff02191690831515021790555060808201518160020160026101000a81548160ff02191690836004811115610afd57fe5b021790555060a0820151816003019080519060200190610b1e929190612063565b5060c0820151816004019080519060200190610b3b929190612063565b5060e0820151816005019080519060200190610b58929190612063565b5090505060048054806001018281610b7091906120e3565b916000526020600020900160008490919091509060001916905550600080815480929190600101919050555050505050505050565b6000610baf61210f565b610bb761210f565b600080610bc261210f565b610bca61210f565b610bd261210f565b610bda61210f565b6000610be4612123565b610bec6121a0565b60008d10158015610c0157506004805490508d105b1515610c0c57600080fd5b60048d815481101515610c1b57fe5b906000526020600020900154925060076000846000191660001916815260200190815260200160002061010060405190810160405290816000820160009054906101000a900473ffffffffffffffffffffffffffffffffffffffff1673ffffffffffffffffffffffffffffffffffffffff1673ffffffffffffffffffffffffffffffffffffffff168152602001600182015481526020016002820160009054906101000a900460ff161515151581526020016002820160019054906101000a900460ff161515151581526020016002820160029054906101000a900460ff166004811115610d0557fe5b6004811115610d1057fe5b8152602001600382018054600181600116156101000203166002900480601f016020809104026020016040519081016040528092919081815260200182805460018160011615610100020316600290048015610dad5780601f10610d8257610100808354040283529160200191610dad565b820191906000526020600020905b815481529060010190602001808311610d9057829003601f168201915b50505050508152602001600482018054600181600116156101000203166002900480601f016020809104026020016040519081016040528092919081815260200182805460018160011615610100020316600290048015610e4f5780601f10610e2457610100808354040283529160200191610e4f565b820191906000526020600020905b815481529060010190602001808311610e3257829003601f168201915b50505050508152602001600582018054600181600116156101000203166002900480601f016020809104026020016040519081016040528092919081815260200182805460018160011615610100020316600290048015610ef15780601f10610ec657610100808354040283529160200191610ef1565b820191906000526020600020905b815481529060010190602001808311610ed457829003601f168201915b505050505081525050915060086000836000015173ffffffffffffffffffffffffffffffffffffffff1673ffffffffffffffffffffffffffffffffffffffff16815260200190815260200160002060e06040519081016040529081600082018054600181600116156101000203166002900480601f016020809104026020016040519081016040528092919081815260200182805460018160011615610100020316600290048015610fe45780601f10610fb957610100808354040283529160200191610fe4565b820191906000526020600020905b815481529060010190602001808311610fc757829003601f168201915b50505050508152602001600182018054600181600116156101000203166002900480601f0160208091040260200160405190810160405280929190818152602001828054600181600116156101000203166002900480156110865780601f1061105b57610100808354040283529160200191611086565b820191906000526020600020905b81548152906001019060200180831161106957829003601f168201915b505050505081526020016002820160009054906101000a900460ff1660028111156110ad57fe5b60028111156110b857fe5b815260200160038201546000191660001916815260200160048201548152602001600582018054600181600116156101000203166002900480601f0160208091040260200160405190810160405280929190818152602001828054600181600116156101000203166002900480156111715780601f1061114657610100808354040283529160200191611171565b820191906000526020600020905b81548152906001019060200180831161115457829003601f168201915b50505050508152602001600682018054806020026020016040519081016040528092919081815260200182805480156111ff57602002820191906000526020600020905b8160009054906101000a900473ffffffffffffffffffffffffffffffffffffffff1673ffffffffffffffffffffffffffffffffffffffff16815260200190600101908083116111b5575b50505050508152505090508281602001518260a001518460200151856060015161122c8760800151611ead565b8760a001518860c001518960e001518797508696508292508191508090509b509b509b509b509b509b509b509b509b505050509193959799909294969850565b600083836040518083805190602001908083835b6020831015156112a55780518252602082019150602081019050602083039250611280565b6001836020036101000a03801982511681845116808217855250505050505090500182805190602001908083835b6020831015156112f857805182526020820191506020810190506020830392506112d3565b6001836020036101000a038019825116818451168082178552505050505050905001925050506040518091039020905060e0604051908101604052808681526020018581526020016001600281111561134d57fe5b8152602001826000191681526020016000815260200183815260200160006040518059106113785750595b9080825280602002602001820160405250815250600860003373ffffffffffffffffffffffffffffffffffffffff1673ffffffffffffffffffffffffffffffffffffffff16815260200190815260200160002060008201518160000190805190602001906113e7929190612063565b506020820151816001019080519060200190611404929190612063565b5060408201518160020160006101000a81548160ff0219169083600281111561142957fe5b0217905550606082015181600301906000191690556080820151816004015560a0820151816005019080519060200190611464929190612063565b5060c0820151816006019080519060200190611481929190612204565b5090505060058054806001018281611499919061228e565b9160005260206000209001600033909190916101000a81548173ffffffffffffffffffffffffffffffffffffffff021916908373ffffffffffffffffffffffffffffffffffffffff160217905550506001600081548092919060010191905055505050505050565b60008260076000826000191660001916815260200190815260200160002060020160009054906101000a900460ff16151561153b57600080fd5b833373ffffffffffffffffffffffffffffffffffffffff1660076000836000191660001916815260200190815260200160002060000160009054906101000a900473ffffffffffffffffffffffffffffffffffffffff1673ffffffffffffffffffffffffffffffffffffffff161415156115b457600080fd5b60076000866000191660001916815260200190815260200160002092503373ffffffffffffffffffffffffffffffffffffffff168360000160009054906101000a900473ffffffffffffffffffffffffffffffffffffffff1673ffffffffffffffffffffffffffffffffffffffff1614151561162f57600080fd5b60018360020160016101000a81548160ff0219169083151502179055508383600101819055505050505050565b6000600860003373ffffffffffffffffffffffffffffffffffffffff1673ffffffffffffffffffffffffffffffffffffffff16815260200190815260200160002060020160009054906101000a900460ff16905090565b60008160076000826000191660001916815260200190815260200160002060020160009054906101000a900460ff1615156116ed57600080fd5b60076000846000191660001916815260200190815260200160002091503373ffffffffffffffffffffffffffffffffffffffff168260000160009054906101000a900473ffffffffffffffffffffffffffffffffffffffff1673ffffffffffffffffffffffffffffffffffffffff161415151561176957600080fd5b8160020160019054906101000a900460ff16151561178657600080fd5b8160010154341015151561179957600080fd5b8160000160009054906101000a900473ffffffffffffffffffffffffffffffffffffffff1673ffffffffffffffffffffffffffffffffffffffff166108fc349081150290604051600060405180830381858888f1935050505015156117fd57600080fd5b338260000160006101000a81548173ffffffffffffffffffffffffffffffffffffffff021916908373ffffffffffffffffffffffffffffffffffffffff16021790555060008260020160016101000a81548160ff021916908315150217905550505050565b60025481565b60008083836040518083805190602001908083835b6020831015156118a2578051825260208201915060208101905060208303925061187d565b6001836020036101000a03801982511681845116808217855250505050505090500182805190602001908083835b6020831015156118f557805182526020820191506020810190506020830392506118d0565b6001836020036101000a0380198251168184511680821785525050505050509050019250505060405180910390209150600860003373ffffffffffffffffffffffffffffffffffffffff1673ffffffffffffffffffffffffffffffffffffffff1681526020019081526020016000209050816000191681600301546000191614156119a15760028160020160006101000a81548160ff0219169083600281111561199b57fe5b02179055505b6001600081548092919060019003919050555050505050565b60015481565b8060076000826000191660001916815260200190815260200160002060020160009054906101000a900460ff1615156119f857600080fd5b813373ffffffffffffffffffffffffffffffffffffffff1660076000836000191660001916815260200190815260200160002060000160009054906101000a900473ffffffffffffffffffffffffffffffffffffffff1673ffffffffffffffffffffffffffffffffffffffff16141515611a7157600080fd5b600060076000856000191660001916815260200190815260200160002060020160016101000a81548160ff021916908315150217905550505050565b611ab561210f565b6000611abf61210f565b6000611ac96121a0565b60008610158015611ade575060058054905086105b1515611ae957600080fd5b600586815481101515611af857fe5b906000526020600020900160009054906101000a900473ffffffffffffffffffffffffffffffffffffffff169150600860008373ffffffffffffffffffffffffffffffffffffffff1673ffffffffffffffffffffffffffffffffffffffff16815260200190815260200160002060e06040519081016040529081600082018054600181600116156101000203166002900480601f016020809104026020016040519081016040528092919081815260200182805460018160011615610100020316600290048015611c0a5780601f10611bdf57610100808354040283529160200191611c0a565b820191906000526020600020905b815481529060010190602001808311611bed57829003601f168201915b50505050508152602001600182018054600181600116156101000203166002900480601f016020809104026020016040519081016040528092919081815260200182805460018160011615610100020316600290048015611cac5780601f10611c8157610100808354040283529160200191611cac565b820191906000526020600020905b815481529060010190602001808311611c8f57829003601f168201915b505050505081526020016002820160009054906101000a900460ff166002811115611cd357fe5b6002811115611cde57fe5b815260200160038201546000191660001916815260200160048201548152602001600582018054600181600116156101000203166002900480601f016020809104026020016040519081016040528092919081815260200182805460018160011615610100020316600290048015611d975780601f10611d6c57610100808354040283529160200191611d97565b820191906000526020600020905b815481529060010190602001808311611d7a57829003601f168201915b5050505050815260200160068201805480602002602001604051908101604052809291908181526020018280548015611e2557602002820191906000526020600020905b8160009054906101000a900473ffffffffffffffffffffffffffffffffffffffff1673ffffffffffffffffffffffffffffffffffffffff1681526020019060010190808311611ddb575b5050505050815250509050806000015181608001518260a0015182925080905094509450945050509193909250565b60005481565b600080821415611e6d5760009050611ea8565b6001821415611e7f5760019050611ea8565b6002821415611e915760029050611ea8565b6003821415611ea35760039050611ea8565b600490505b919050565b611eb561210f565b60006004811115611ec257fe5b826004811115611ece57fe5b1415611f11576040805190810160405280600b81526020017f5265736964656e7469616c000000000000000000000000000000000000000000815250905061205e565b60016004811115611f1e57fe5b826004811115611f2a57fe5b1415611f6d576040805190810160405280600a81526020017f496e647573747269616c00000000000000000000000000000000000000000000815250905061205e565b60026004811115611f7a57fe5b826004811115611f8657fe5b1415611fc9576040805190810160405280600c81526020017f4167726963756c747572616c0000000000000000000000000000000000000000815250905061205e565b60036004811115611fd657fe5b826004811115611fe257fe5b1415612025576040805190810160405280600981526020017f436f6d6d756e6974790000000000000000000000000000000000000000000000815250905061205e565b6040805190810160405280600581526020017f4f7468657200000000000000000000000000000000000000000000000000000081525090505b919050565b828054600181600116156101000203166002900490600052602060002090601f016020900481019282601f106120a457805160ff19168380011785556120d2565b828001600101855582156120d2579182015b828111156120d15782518255916020019190600101906120b6565b5b5090506120df91906122ba565b5090565b81548183558181151161210a5781836000526020600020918201910161210991906122df565b5b505050565b602060405190810160405280600081525090565b61010060405190810160405280600073ffffffffffffffffffffffffffffffffffffffff168152602001600081526020016000151581526020016000151581526020016000600481111561217357fe5b8152602001612180612304565b815260200161218d612304565b815260200161219a612304565b81525090565b60e0604051908101604052806121b4612304565b81526020016121c1612304565b8152602001600060028111156121d357fe5b815260200160008019168152602001600081526020016121f1612304565b81526020016121fe612318565b81525090565b82805482825590600052602060002090810192821561227d579160200282015b8281111561227c5782518260006101000a81548173ffffffffffffffffffffffffffffffffffffffff021916908373ffffffffffffffffffffffffffffffffffffffff16021790555091602001919060010190612224565b5b50905061228a919061232c565b5090565b8154818355818115116122b5578183600052602060002091820191016122b491906122ba565b5b505050565b6122dc91905b808211156122d85760008160009055506001016122c0565b5090565b90565b61230191905b808211156122fd5760008160009055506001016122e5565b5090565b90565b602060405190810160405280600081525090565b602060405190810160405280600081525090565b61236c91905b8082111561236857600081816101000a81549073ffffffffffffffffffffffffffffffffffffffff021916905550600101612332565b5090565b905600a165627a7a723058208a21bea06f42075d9928dea2d028361045fef89a4cd871ec990e24165d7ecb7c0029",
  "source": "pragma solidity ^0.4.4;\ncontract Colonizer {\n\n  enum HabitantState { offline, online, archieved }\n  enum AssetType { Residential, Industrial, Agricultural, Community, Other }\n\n  struct Habitant {\n\n    string fullName;\n    string username;\n    HabitantState status;\n    bytes32 passwordhash;\n    uint256 penaltyScore;\n    string colony;\n\n    address[] relatives;\n  }\n\n  struct Asset {\n    address owner;\n\n    uint256 value;\n\n    bool valid;\n    bool onSale;\n\n    AssetType assetType;\n\n    string description;\n    string longitude;\n    string latitude;\n  }\n\n  struct ColonyLaw {\n\n    uint256 penalty;\n\n    string description;\n    string colony;\n\n  }\n\n  uint256 public assetCount;\n  uint256 public habitantCount;\n  uint256 public colonyLawCount;\n\n  bytes32[] colonyLawKeys;\n  bytes32[] assetKeys;\n  address[] habitantKeys;\n\n  // Mapping Storage\n  mapping (bytes32 => ColonyLaw) colonylawStorage; //\n  mapping (bytes32 => Asset) assetsStorage; // store assetsStorage registered\n  mapping (address => Habitant) habitantsStorage; // store user by address\n\n  // Function Modifiers\n  modifier habitantOnline() { require(habitantsStorage[msg.sender].status == HabitantState.online);_; }\n  modifier assetValid(bytes32 _id) { require(assetsStorage[_id].valid);_; }\n  modifier isAssetOwner(bytes32 _id) { require(assetsStorage[_id].owner == msg.sender);_; }\n\n  function registerHabitant (string fullname, string username, string password, string colony) public {\n    bytes32 passwordhash = keccak256(username, password);\n\n    habitantsStorage[msg.sender] = Habitant(fullname, username, HabitantState.online, passwordhash, 0, colony, new address[](0));\n    habitantKeys.push(msg.sender);\n\n    habitantCount++;\n  }\n\n  function deRegister (string username, string password) public {\n    bytes32 passwordhash = keccak256(username, password);\n\n    Habitant storage habitant = habitantsStorage[msg.sender];\n    if (habitant.passwordhash == passwordhash) {\n      habitant.status = HabitantState.archieved;\n    }\n\n    habitantCount--;\n  }\n\n  function getHabitantByIndex(uint256 _index) public view returns(string fullname, uint256 penaltyScore, string colony) {\n    require(_index >= 0 && _index < habitantKeys.length);\n    address _key = habitantKeys[_index];\n    Habitant memory habitant = habitantsStorage[_key];\n\n    return(habitant.fullName, habitant.penaltyScore, habitant.colony);\n  }\n\n  function getCurrentState () public view returns (HabitantState) {\n    return habitantsStorage[msg.sender].status;\n  }\n\n//-- Private Helper Functions for Asset -- //\n  function getAssetTypeFromIndex(uint256 _index) pure private returns (AssetType) {\n    if (_index == 0) { return AssetType.Residential; }\n    else if (_index == 1) { return AssetType.Industrial; }\n    else if (_index == 2) { return AssetType.Agricultural; }\n    else if (_index == 3) { return AssetType.Community; }\n    else { return AssetType.Other; }\n  }\n\n  function convertAssetTypeToString(AssetType _type) pure private returns (string) {\n    if (_type == AssetType.Residential) return('Residential');\n    else if (_type == AssetType.Industrial) return('Industrial');\n    else if (_type == AssetType.Agricultural) return('Agricultural');\n    else if (_type == AssetType.Community) return('Community');\n    else return('Other');\n  }\n//-- end --//\n\n  function registerAsset(uint256 _value, string _description, uint256 _assetType, string _longitude, string _latitude)\n  public habitantOnline {\n    var assetId = keccak256(_assetType, _longitude, _latitude);\n\n    AssetType assetType = getAssetTypeFromIndex(_assetType);\n\n    assetsStorage[assetId] = Asset({\n      owner: msg.sender,\n      value: _value,\n      valid: true,\n      onSale: false,\n      description: _description,\n      assetType: assetType,\n      longitude: _longitude,\n      latitude: _latitude\n    });\n\n    assetKeys.push(assetId);\n    assetCount++;\n  }\n\n  function buyAsset(bytes32 _assetId) public payable assetValid(_assetId) {\n    Asset storage currentAsset = assetsStorage[_assetId];\n    require(currentAsset.owner != msg.sender);\n    require(currentAsset.onSale);\n    require(msg.value >= currentAsset.value);\n\n    currentAsset.owner.transfer(msg.value);\n\n    currentAsset.owner = msg.sender;\n    currentAsset.onSale = false;\n  }\n\n  function sellAsset(bytes32 _assetId, uint256 _value) public assetValid(_assetId) isAssetOwner(_assetId) {\n    Asset storage currentAsset = assetsStorage[_assetId];\n\n    require(currentAsset.owner == msg.sender);\n    currentAsset.onSale = true;\n    currentAsset.value = _value;\n  }\n\n  function delistAsset(bytes32 _assetId) public assetValid(_assetId) isAssetOwner(_assetId) {\n    assetsStorage[_assetId].onSale = false;\n  }\n\n  function getAssetByIndex(uint256 _index) public view returns(\n    bytes32 assetId, string ownerUsername, string colony, uint256 value, bool onSale,\n    string assetType, string description, string longitude, string latitude\n  ){\n    require(_index >= 0 && _index < assetKeys.length);\n    bytes32 _key = assetKeys[_index];\n    Asset memory asset = assetsStorage[_key];\n    Habitant memory owner = habitantsStorage[asset.owner];\n\n    return(\n      _key, owner.username, owner.colony, asset.value, asset.onSale,\n      convertAssetTypeToString(asset.assetType), asset.description, asset.longitude, asset.latitude\n    );\n  }\n\n}\n",
  "sourcePath": "/Users/wlwanpan/ethereum_lab/Colonizer/contracts/Colonizer.sol",
  "compiler": {
    "name": "solc",
    "version": "0.4.18+commit.9cf6e910.Emscripten.clang"
  },
  "schemaVersion": "1.0.1",
  "updatedAt": "2018-03-17T23:04:31.376Z"
}