{
  "contractName": "Colonizer",
  "abi": [
    {
      "constant": false,
      "inputs": [
        {
          "name": "fullname",
          "type": "string"
        },
        {
          "name": "username",
          "type": "string"
        },
        {
          "name": "password",
          "type": "string"
        },
        {
          "name": "colony",
          "type": "string"
        }
      ],
      "name": "registerHabitant",
      "outputs": [],
      "payable": false,
      "stateMutability": "nonpayable",
      "type": "function"
    },
    {
      "constant": false,
      "inputs": [
        {
          "name": "username",
          "type": "string"
        },
        {
          "name": "password",
          "type": "string"
        }
      ],
      "name": "deRegister",
      "outputs": [],
      "payable": false,
      "stateMutability": "nonpayable",
      "type": "function"
    },
    {
      "constant": true,
      "inputs": [],
      "name": "getCurrentState",
      "outputs": [
        {
          "name": "",
          "type": "uint8"
        }
      ],
      "payable": false,
      "stateMutability": "view",
      "type": "function"
    },
    {
      "constant": false,
      "inputs": [
        {
          "name": "_assetId",
          "type": "bytes32"
        },
        {
          "name": "_value",
          "type": "uint256"
        }
      ],
      "name": "updateAssetValue",
      "outputs": [
        {
          "name": "status",
          "type": "bool"
        }
      ],
      "payable": false,
      "stateMutability": "nonpayable",
      "type": "function"
    },
    {
      "constant": false,
      "inputs": [
        {
          "name": "_value",
          "type": "uint256"
        },
        {
          "name": "_description",
          "type": "string"
        },
        {
          "name": "_assetType",
          "type": "string"
        },
        {
          "name": "_longitude",
          "type": "string"
        },
        {
          "name": "_latitude",
          "type": "string"
        }
      ],
      "name": "registerAsset",
      "outputs": [],
      "payable": false,
      "stateMutability": "nonpayable",
      "type": "function"
    },
    {
      "constant": false,
      "inputs": [
        {
          "name": "_assetId",
          "type": "bytes32"
        }
      ],
      "name": "buyAsset",
      "outputs": [],
      "payable": true,
      "stateMutability": "payable",
      "type": "function"
    }
  ],
  "bytecode": "0x6060604052341561000f57600080fd5b610f588061001e6000396000f300606060405260043610610078576000357c0100000000000000000000000000000000000000000000000000000000900463ffffffff16806314d74a921461007d578063378aa701146101a35780633f383ef5146101da578063413a86f0146101f6578063734ecf8c14610325578063c560d273146103c5575b600080fd5b341561008857600080fd5b6101a1600480803590602001908201803590602001908080601f0160208091040260200160405190810160405280939291908181526020018383808284378201915050505050509190803590602001908201803590602001908080601f0160208091040260200160405190810160405280939291908181526020018383808284378201915050505050509190803590602001908201803590602001908080601f0160208091040260200160405190810160405280939291908181526020018383808284378201915050505050509190803590602001908201803590602001908080601f0160208091040260200160405190810160405280939291908181526020018383808284378201915050505050509190505061040d565b005b34156101ae57600080fd5b6101b661066a565b604051808260028111156101c657fe5b60ff16815260200191505060405180910390f35b6101f46004808035600019169060200190919050506106c6565b005b341561020157600080fd5b610323600480803590602001909190803590602001908201803590602001908080601f0160208091040260200160405190810160405280939291908181526020018383808284378201915050505050509190803590602001908201803590602001908080601f0160208091040260200160405190810160405280939291908181526020018383808284378201915050505050509190803590602001908201803590602001908080601f0160208091040260200160405190810160405280939291908181526020018383808284378201915050505050509190803590602001908201803590602001908080601f01602080910402602001604051908101604052809392919081815260200183838082843782019150505050505091905050610820565b005b341561033057600080fd5b6103c3600480803590602001908201803590602001908080601f0160208091040260200160405190810160405280939291908181526020018383808284378201915050505050509190803590602001908201803590602001908080601f01602080910402602001604051908101604052809392919081815260200183838082843782019150505050505091905050610abf565b005b34156103d057600080fd5b6103f3600480803560001916906020019091908035906020019091905050610bfe565b604051808215151515815260200191505060405180910390f35b6000610417610c9c565b84846040518083805190602001908083835b60208310151561044e5780518252602082019150602081019050602083039250610429565b6001836020036101000a03801982511681845116808217855250505050505090500182805190602001908083835b6020831015156104a1578051825260208201915060208101905060208303925061047c565b6001836020036101000a038019825116818451168082178552505050505050905001925050506040518091039020915060e060405190810160405280878152602001868152602001600160028111156104f657fe5b815260200183600019168152602001848152602001600060405180591061051a5750595b90808252806020026020018201604052508152602001600060405180591061053f5750595b9080825280602002602001820160405250815250905080600160003373ffffffffffffffffffffffffffffffffffffffff1673ffffffffffffffffffffffffffffffffffffffff16815260200190815260200160002060008201518160000190805190602001906105b1929190610d06565b5060208201518160010190805190602001906105ce929190610d06565b5060408201518160020160006101000a81548160ff021916908360028111156105f357fe5b0217905550606082015181600301906000191690556080820151816004019080519060200190610624929190610d06565b5060a0820151816005019080519060200190610641929190610d86565b5060c082015181600601908051906020019061065e929190610dd9565b50905050505050505050565b600080600160003373ffffffffffffffffffffffffffffffffffffffff1673ffffffffffffffffffffffffffffffffffffffff16815260200190815260200160002090508060020160009054906101000a900460ff1691505090565b6000600115156106d557600080fd5b81600080826000191660001916815260200190815260200160002060020160009054906101000a900460ff16151561070c57600080fd5b6000808460001916600019168152602001908152602001600020915081600101543414151561073a57600080fd5b8160020160019054906101000a900460ff16151561075757600080fd5b8160000160009054906101000a900473ffffffffffffffffffffffffffffffffffffffff1673ffffffffffffffffffffffffffffffffffffffff166108fc349081150290604051600060405180830381858888f1935050505015156107bb57600080fd5b338260000160006101000a81548173ffffffffffffffffffffffffffffffffffffffff021916908373ffffffffffffffffffffffffffffffffffffffff16021790555060008260020160016101000a81548160ff021916908315150217905550505050565b60006001151561082f57600080fd5b8383836040518084805190602001908083835b6020831015156108675780518252602082019150602081019050602083039250610842565b6001836020036101000a03801982511681845116808217855250505050505090500183805190602001908083835b6020831015156108ba5780518252602082019150602081019050602083039250610895565b6001836020036101000a03801982511681845116808217855250505050505090500182805190602001908083835b60208310151561090d57805182526020820191506020810190506020830392506108e8565b6001836020036101000a038019825116818451168082178552505050505050905001935050505060405180910390209050610100604051908101604052803373ffffffffffffffffffffffffffffffffffffffff16815260200187815260200160011515815260200160001515815260200186815260200185815260200184815260200183815250600080836000191660001916815260200190815260200160002060008201518160000160006101000a81548173ffffffffffffffffffffffffffffffffffffffff021916908373ffffffffffffffffffffffffffffffffffffffff1602179055506020820151816001015560408201518160020160006101000a81548160ff02191690831515021790555060608201518160020160016101000a81548160ff0219169083151502179055506080820151816003019080519060200190610a5c929190610d06565b5060a0820151816004019080519060200190610a79929190610d06565b5060c0820151816005019080519060200190610a96929190610d06565b5060e0820151816006019080519060200190610ab3929190610d06565b50905050505050505050565b60008083836040518083805190602001908083835b602083101515610af95780518252602082019150602081019050602083039250610ad4565b6001836020036101000a03801982511681845116808217855250505050505090500182805190602001908083835b602083101515610b4c5780518252602082019150602081019050602083039250610b27565b6001836020036101000a0380198251168184511680821785525050505050509050019250505060405180910390209150600160003373ffffffffffffffffffffffffffffffffffffffff1673ffffffffffffffffffffffffffffffffffffffff168152602001908152602001600020905081600019168160030154600019161415610bf85760028160020160006101000a81548160ff02191690836002811115610bf257fe5b02179055505b50505050565b60008060011515610c0e57600080fd5b600080856000191660001916815260200190815260200160002090503373ffffffffffffffffffffffffffffffffffffffff168160000160009054906101000a900473ffffffffffffffffffffffffffffffffffffffff1673ffffffffffffffffffffffffffffffffffffffff16141515610c8857600080fd5b828160010181905550600191505092915050565b60e060405190810160405280610cb0610e63565b8152602001610cbd610e63565b815260200160006002811115610ccf57fe5b815260200160008019168152602001610ce6610e63565b8152602001610cf3610e77565b8152602001610d00610e8b565b81525090565b828054600181600116156101000203166002900490600052602060002090601f016020900481019282601f10610d4757805160ff1916838001178555610d75565b82800160010185558215610d75579182015b82811115610d74578251825591602001919060010190610d59565b5b509050610d829190610e9f565b5090565b828054828255906000526020600020908101928215610dc8579160200282015b82811115610dc7578251829060001916905591602001919060010190610da6565b5b509050610dd59190610ec4565b5090565b828054828255906000526020600020908101928215610e52579160200282015b82811115610e515782518260006101000a81548173ffffffffffffffffffffffffffffffffffffffff021916908373ffffffffffffffffffffffffffffffffffffffff16021790555091602001919060010190610df9565b5b509050610e5f9190610ee9565b5090565b602060405190810160405280600081525090565b602060405190810160405280600081525090565b602060405190810160405280600081525090565b610ec191905b80821115610ebd576000816000905550600101610ea5565b5090565b90565b610ee691905b80821115610ee2576000816000905550600101610eca565b5090565b90565b610f2991905b80821115610f2557600081816101000a81549073ffffffffffffffffffffffffffffffffffffffff021916905550600101610eef565b5090565b905600a165627a7a72305820ad685eb9316cc5ddd4d3661cf5b1f923dc9f87e97857e3e0a8780b9c2eac98c90029",
  "source": "pragma solidity ^0.4.18;\ncontract Colonizer {\n\n  enum HabitantState { offline, online, archieved }\n\n  struct Habitant {\n\n    string fullName;\n    string username;\n    HabitantState status;\n    bytes32 passwordhash;\n    string colony;\n\n    bytes32[] assetsStorage;\n    address[] relatives;\n  }\n\n  struct Asset {\n    address owner;\n\n    uint256 value;\n\n    bool valid;\n    bool onSale;\n\n    string description;\n    string assetType;\n    string longitude;\n    string latitude;\n  }\n\n  mapping (bytes32 => Asset) assetsStorage; // store assetsStorage registered\n  mapping (address => Habitant) habitantsStorage; // store user by address\n  // Function Modifiers\n  modifier habitantValid() { require(true);_; }\n  modifier assetValid(bytes32 _id) { require(assetsStorage[_id].valid);_; }\n\n  function registerHabitant (string fullname, string username, string password, string colony) public {\n    bytes32 passwordhash = keccak256(username, password);\n\n    Habitant memory newHabitant = Habitant(fullname, username, HabitantState.online, passwordhash, colony, new bytes32[](0), new address[](0));\n    habitantsStorage[msg.sender] = newHabitant;\n  }\n\n  function deRegister (string username, string password) public {\n    bytes32 passwordhash = keccak256(username, password);\n\n    Habitant storage habitant = habitantsStorage[msg.sender];\n    if (habitant.passwordhash == passwordhash) {\n      habitant.status = HabitantState.archieved;\n    }\n  }\n\n  function getCurrentState () public constant returns (HabitantState) {\n    Habitant storage habitant = habitantsStorage[msg.sender];\n    return habitant.status;\n  }\n\n  function updateAssetValue(bytes32 _assetId, uint256 _value) public habitantValid returns(bool status) {\n    Asset storage currentAsset = assetsStorage[_assetId];\n    require(currentAsset.owner == msg.sender);\n    currentAsset.value = _value;\n    return(true);\n  }\n\n  function registerAsset(uint256 _value, string _description, string _assetType, string _longitude, string _latitude)\n  public habitantValid {\n    var assetId = keccak256(_assetType, _longitude, _latitude);\n\n    assetsStorage[assetId] = Asset({\n      owner: msg.sender,\n      value: _value,\n      valid: true,\n      onSale: false,\n      description: _description,\n      assetType: _assetType,\n      longitude: _longitude,\n      latitude: _latitude\n    });\n\n  }\n\n  function buyAsset(bytes32 _assetId) public payable habitantValid assetValid(_assetId) {\n    Asset storage currentAsset = assetsStorage[_assetId];\n    require(msg.value == currentAsset.value);\n    require(currentAsset.onSale);\n\n    currentAsset.owner.transfer(msg.value);\n    currentAsset.owner = msg.sender;\n    currentAsset.onSale = false;\n  }\n\n  /* function sellAsset(bytes32 _assetId) public habitantValid assetValid(_assetId) {\n    Asset storage currentAsset = assetsStorage[_assetId];\n  } */\n\n}\n",
  "sourcePath": "/Users/wlwanpan/ethereum_lab/Colonizer/contracts/Colonizer.sol",
  "compiler": {
    "name": "solc",
    "version": "0.4.19+commit.c4cbbb05.Emscripten.clang"
  },
  "schemaVersion": "2.0.0",
  "updatedAt": "2018-03-17T06:13:40.785Z"
}