{
  "contractName": "Colonizer",
  "abi": [
    {
      "constant": false,
      "inputs": [
        {
          "name": "_value",
          "type": "uint256"
        },
        {
          "name": "_description",
          "type": "string"
        },
        {
          "name": "_assetType",
          "type": "uint256"
        },
        {
          "name": "_longitude",
          "type": "string"
        },
        {
          "name": "_latitude",
          "type": "string"
        }
      ],
      "name": "registerAsset",
      "outputs": [],
      "payable": false,
      "stateMutability": "nonpayable",
      "type": "function"
    },
    {
      "constant": false,
      "inputs": [
        {
          "name": "fullname",
          "type": "string"
        },
        {
          "name": "username",
          "type": "string"
        },
        {
          "name": "password",
          "type": "string"
        },
        {
          "name": "colony",
          "type": "string"
        }
      ],
      "name": "registerHabitant",
      "outputs": [],
      "payable": false,
      "stateMutability": "nonpayable",
      "type": "function"
    },
    {
      "constant": false,
      "inputs": [
        {
          "name": "_assetId",
          "type": "bytes32"
        },
        {
          "name": "_value",
          "type": "uint256"
        }
      ],
      "name": "sellAsset",
      "outputs": [],
      "payable": false,
      "stateMutability": "nonpayable",
      "type": "function"
    },
    {
      "constant": true,
      "inputs": [],
      "name": "getCurrentState",
      "outputs": [
        {
          "name": "",
          "type": "uint8"
        }
      ],
      "payable": false,
      "stateMutability": "view",
      "type": "function"
    },
    {
      "constant": false,
      "inputs": [
        {
          "name": "_assetId",
          "type": "bytes32"
        }
      ],
      "name": "buyAsset",
      "outputs": [],
      "payable": true,
      "stateMutability": "payable",
      "type": "function"
    },
    {
      "constant": false,
      "inputs": [
        {
          "name": "username",
          "type": "string"
        },
        {
          "name": "password",
          "type": "string"
        }
      ],
      "name": "deRegister",
      "outputs": [],
      "payable": false,
      "stateMutability": "nonpayable",
      "type": "function"
    },
    {
      "constant": false,
      "inputs": [
        {
          "name": "_assetId",
          "type": "bytes32"
        }
      ],
      "name": "delistAsset",
      "outputs": [],
      "payable": false,
      "stateMutability": "nonpayable",
      "type": "function"
    }
  ],
  "bytecode": "0x6060604052341561000f57600080fd5b61103c8061001e6000396000f300606060405260043610610083576000357c0100000000000000000000000000000000000000000000000000000000900463ffffffff168063032f3ad21461008857806314d74a921461017d5780631b98d07e146102a3578063378aa701146102d35780633f383ef51461030a578063734ecf8c14610326578063e06e60a5146103c6575b600080fd5b341561009357600080fd5b61017b600480803590602001909190803590602001908201803590602001908080601f0160208091040260200160405190810160405280939291908181526020018383808284378201915050505050509190803590602001909190803590602001908201803590602001908080601f0160208091040260200160405190810160405280939291908181526020018383808284378201915050505050509190803590602001908201803590602001908080601f016020809104026020016040519081016040528093929190818152602001838380828437820191505050505050919050506103ed565b005b341561018857600080fd5b6102a1600480803590602001908201803590602001908080601f0160208091040260200160405190810160405280939291908181526020018383808284378201915050505050509190803590602001908201803590602001908080601f0160208091040260200160405190810160405280939291908181526020018383808284378201915050505050509190803590602001908201803590602001908080601f0160208091040260200160405190810160405280939291908181526020018383808284378201915050505050509190803590602001908201803590602001908080601f0160208091040260200160405190810160405280939291908181526020018383808284378201915050505050509190505061070a565b005b34156102ae57600080fd5b6102d1600480803560001916906020019091908035906020019091905050610919565b005b34156102de57600080fd5b6102e6610a71565b604051808260028111156102f657fe5b60ff16815260200191505060405180910390f35b610324600480803560001916906020019091905050610ac8565b005b341561033157600080fd5b6103c4600480803590602001908201803590602001908080601f0160208091040260200160405190810160405280939291908181526020018383808284378201915050505050509190803590602001908201803590602001908080601f01602080910402602001604051908101604052809392919081815260200183838082843782019150505050505091905050610c75565b005b34156103d157600080fd5b6103eb600480803560001916906020019091905050610db4565b005b600080600160028111156103fd57fe5b600160003373ffffffffffffffffffffffffffffffffffffffff1673ffffffffffffffffffffffffffffffffffffffff16815260200190815260200160002060020160009054906101000a900460ff16600281111561045857fe5b14151561046457600080fd5b8484846040518084815260200183805190602001908083835b6020831015156104a2578051825260208201915060208101905060208303925061047d565b6001836020036101000a03801982511681845116808217855250505050505090500182805190602001908083835b6020831015156104f557805182526020820191506020810190506020830392506104d0565b6001836020036101000a03801982511681845116808217855250505050505090500193505050506040518091039020915060049050600085141561053c5760009050610571565b600185141561054e5760019050610570565b6002851415610560576002905061056f565b600385141561056e57600390505b5b5b5b610100604051908101604052803373ffffffffffffffffffffffffffffffffffffffff1681526020018881526020016001151581526020016000151581526020018260048111156105be57fe5b815260200187815260200185815260200184815250600080846000191660001916815260200190815260200160002060008201518160000160006101000a81548173ffffffffffffffffffffffffffffffffffffffff021916908373ffffffffffffffffffffffffffffffffffffffff1602179055506020820151816001015560408201518160020160006101000a81548160ff02191690831515021790555060608201518160020160016101000a81548160ff02191690831515021790555060808201518160020160026101000a81548160ff021916908360048111156106a257fe5b021790555060a08201518160030190805190602001906106c3929190610e9e565b5060c08201518160040190805190602001906106e0929190610e9e565b5060e08201518160050190805190602001906106fd929190610e9e565b5090505050505050505050565b600083836040518083805190602001908083835b602083101515610743578051825260208201915060208101905060208303925061071e565b6001836020036101000a03801982511681845116808217855250505050505090500182805190602001908083835b6020831015156107965780518252602082019150602081019050602083039250610771565b6001836020036101000a038019825116818451168082178552505050505050905001925050506040518091039020905060c060405190810160405280868152602001858152602001600160028111156107eb57fe5b815260200182600019168152602001838152602001600060405180591061080f5750595b9080825280602002602001820160405250815250600160003373ffffffffffffffffffffffffffffffffffffffff1673ffffffffffffffffffffffffffffffffffffffff168152602001908152602001600020600082015181600001908051906020019061087e929190610e9e565b50602082015181600101908051906020019061089b929190610e9e565b5060408201518160020160006101000a81548160ff021916908360028111156108c057fe5b02179055506060820151816003019060001916905560808201518160040190805190602001906108f1929190610e9e565b5060a082015181600501908051906020019061090e929190610f1e565b509050505050505050565b600082600080826000191660001916815260200190815260200160002060020160009054906101000a900460ff16151561095257600080fd5b833373ffffffffffffffffffffffffffffffffffffffff16600080836000191660001916815260200190815260200160002060000160009054906101000a900473ffffffffffffffffffffffffffffffffffffffff1673ffffffffffffffffffffffffffffffffffffffff161415156109ca57600080fd5b600080866000191660001916815260200190815260200160002092503373ffffffffffffffffffffffffffffffffffffffff168360000160009054906101000a900473ffffffffffffffffffffffffffffffffffffffff1673ffffffffffffffffffffffffffffffffffffffff16141515610a4457600080fd5b60018360020160016101000a81548160ff0219169083151502179055508383600101819055505050505050565b6000600160003373ffffffffffffffffffffffffffffffffffffffff1673ffffffffffffffffffffffffffffffffffffffff16815260200190815260200160002060020160009054906101000a900460ff16905090565b600081600080826000191660001916815260200190815260200160002060020160009054906101000a900460ff161515610b0157600080fd5b600080846000191660001916815260200190815260200160002091503373ffffffffffffffffffffffffffffffffffffffff168260000160009054906101000a900473ffffffffffffffffffffffffffffffffffffffff1673ffffffffffffffffffffffffffffffffffffffff1614151515610b7c57600080fd5b8160020160019054906101000a900460ff161515610b9957600080fd5b81600101543410151515610bac57600080fd5b8160000160009054906101000a900473ffffffffffffffffffffffffffffffffffffffff1673ffffffffffffffffffffffffffffffffffffffff166108fc349081150290604051600060405180830381858888f193505050501515610c1057600080fd5b338260000160006101000a81548173ffffffffffffffffffffffffffffffffffffffff021916908373ffffffffffffffffffffffffffffffffffffffff16021790555060008260020160016101000a81548160ff021916908315150217905550505050565b60008083836040518083805190602001908083835b602083101515610caf5780518252602082019150602081019050602083039250610c8a565b6001836020036101000a03801982511681845116808217855250505050505090500182805190602001908083835b602083101515610d025780518252602082019150602081019050602083039250610cdd565b6001836020036101000a0380198251168184511680821785525050505050509050019250505060405180910390209150600160003373ffffffffffffffffffffffffffffffffffffffff1673ffffffffffffffffffffffffffffffffffffffff168152602001908152602001600020905081600019168160030154600019161415610dae5760028160020160006101000a81548160ff02191690836002811115610da857fe5b02179055505b50505050565b80600080826000191660001916815260200190815260200160002060020160009054906101000a900460ff161515610deb57600080fd5b813373ffffffffffffffffffffffffffffffffffffffff16600080836000191660001916815260200190815260200160002060000160009054906101000a900473ffffffffffffffffffffffffffffffffffffffff1673ffffffffffffffffffffffffffffffffffffffff16141515610e6357600080fd5b6000806000856000191660001916815260200190815260200160002060020160016101000a81548160ff021916908315150217905550505050565b828054600181600116156101000203166002900490600052602060002090601f016020900481019282601f10610edf57805160ff1916838001178555610f0d565b82800160010185558215610f0d579182015b82811115610f0c578251825591602001919060010190610ef1565b5b509050610f1a9190610fa8565b5090565b828054828255906000526020600020908101928215610f97579160200282015b82811115610f965782518260006101000a81548173ffffffffffffffffffffffffffffffffffffffff021916908373ffffffffffffffffffffffffffffffffffffffff16021790555091602001919060010190610f3e565b5b509050610fa49190610fcd565b5090565b610fca91905b80821115610fc6576000816000905550600101610fae565b5090565b90565b61100d91905b8082111561100957600081816101000a81549073ffffffffffffffffffffffffffffffffffffffff021916905550600101610fd3565b5090565b905600a165627a7a72305820ea38e89d19246fec8bf582df41d770bb1935b2099b04660156a3fabbcbcde9630029",
  "source": "pragma solidity ^0.4.4;\ncontract Colonizer {\n\n  enum HabitantState { offline, online, archieved }\n  enum AssetType { Residential, Industrial, Agricultural, Community, Other }\n\n  struct Habitant {\n\n    string fullName;\n    string username;\n    HabitantState status;\n    bytes32 passwordhash;\n    string colony;\n\n    address[] relatives;\n  }\n\n  struct Asset {\n    address owner;\n\n    uint256 value;\n\n    bool valid;\n    bool onSale;\n\n    AssetType assetType;\n\n    string description;\n    string longitude;\n    string latitude;\n  }\n\n  // Mapping Storage\n  mapping (bytes32 => Asset) assetsStorage; // store assetsStorage registered\n  mapping (address => Habitant) habitantsStorage; // store user by address\n\n  // Function Modifiers\n  modifier habitantOnline() { require(habitantsStorage[msg.sender].status == HabitantState.online);_; }\n  modifier assetValid(bytes32 _id) { require(assetsStorage[_id].valid);_; }\n  modifier isAssetOwner(bytes32 _id) { require(assetsStorage[_id].owner == msg.sender);_; }\n\n  function registerHabitant (string fullname, string username, string password, string colony) public {\n    bytes32 passwordhash = keccak256(username, password);\n\n    habitantsStorage[msg.sender] = Habitant(fullname, username, HabitantState.online, passwordhash, colony, new address[](0));\n  }\n\n  function deRegister (string username, string password) public {\n    bytes32 passwordhash = keccak256(username, password);\n\n    Habitant storage habitant = habitantsStorage[msg.sender];\n    if (habitant.passwordhash == passwordhash) {\n      habitant.status = HabitantState.archieved;\n    }\n  }\n\n  function getCurrentState () public view returns (HabitantState) {\n    return habitantsStorage[msg.sender].status;\n  }\n\n  function registerAsset(uint256 _value, string _description, uint256 _assetType, string _longitude, string _latitude)\n  public habitantOnline {\n    var assetId = keccak256(_assetType, _longitude, _latitude);\n\n    AssetType assetType = AssetType.Other;\n    if (_assetType == 0) { assetType = AssetType.Residential; }\n    else if (_assetType == 1) { assetType = AssetType.Industrial; }\n    else if (_assetType == 2) { assetType = AssetType.Agricultural; }\n    else if (_assetType == 3) { assetType = AssetType.Community; }\n\n    assetsStorage[assetId] = Asset({\n      owner: msg.sender,\n      value: _value,\n      valid: true,\n      onSale: false,\n      description: _description,\n      assetType: assetType,\n      longitude: _longitude,\n      latitude: _latitude\n    });\n\n  }\n\n  function buyAsset(bytes32 _assetId) public payable assetValid(_assetId) {\n    Asset storage currentAsset = assetsStorage[_assetId];\n    require(currentAsset.owner != msg.sender);\n    require(currentAsset.onSale);\n    require(msg.value >= currentAsset.value);\n\n    currentAsset.owner.transfer(msg.value);\n\n    currentAsset.owner = msg.sender;\n    currentAsset.onSale = false;\n  }\n\n  function sellAsset(bytes32 _assetId, uint256 _value) public assetValid(_assetId) isAssetOwner(_assetId) {\n    Asset storage currentAsset = assetsStorage[_assetId];\n\n    require(currentAsset.owner == msg.sender);\n    currentAsset.onSale = true;\n    currentAsset.value = _value;\n  }\n\n  function delistAsset(bytes32 _assetId) public assetValid(_assetId) isAssetOwner(_assetId) {\n    assetsStorage[_assetId].onSale = false;\n  }\n\n}\n",
  "sourcePath": "/Users/wlwanpan/ethereum_lab/Colonizer/contracts/Colonizer.sol",
  "compiler": {
    "name": "solc",
    "version": "0.4.18+commit.9cf6e910.Emscripten.clang"
  },
  "schemaVersion": "1.0.1",
  "updatedAt": "2018-03-17T10:16:59.456Z"
}